:1000000024C1000041C100003FC100003DC100000B
:100010003BC1000039C1000037C1000035C10000FC
:1000200033C1000031C100002FC100002DC100000C
:100030002BC100000C94B33127C1000025C1000082
:1000400023C1000021C100001FC100001DC100002C
:100050000C94173119C100000C947B3115C10000BC
:1000600013C1000011C100000FC100000DC100004C
:100070000BC1000009C1000007C1000005C100005C
:1000800003C1000001C10000FFC000000800000023
:10009000BE922449123EABAAAA2ABECDCCCC4C3E7D
:1000A00000000080BEABAAAAAA3E00000000BF006C
:1000B0000000803F0000000000084178D3BB438768
:1000C000D1133D190E3CC3BD4282AD2B3E68EC827C
:1000D00076BED98FE1A93E4C80EFFFBE01C4FF7F01
:1000E0003F000000000005A84CCDB2D44EB9383610
:1000F000A9020C50B9918688083CA6AAAA2ABE007B
:100100000000803F696E6600494E46006E616E00D9
:100110004E414E0000407A10F35A00A0724E18096A
:100120000010A5D4E80000E87648170000E40B545E
:10013000020000CA9A3B000000E1F505000080962D
:100140009800000040420F000000A086010000005F
:10015000102700000000E803000000006400000019
:1001600000000A00000000000100000000002C76E2
:10017000D888DC674F0823DFC1DFAE59E1B1B796FD
:10018000E5E3E453C63AE651997696E8E6C284265A
:10019000EB898C9B62ED407C6FFCEFBC9C9F40F236
:1001A000BAA56FA5F490055A2AF75C936B6CF967B2
:1001B0006DC11BFCE0E40D47FEF520E6B500D0ED77
:1001C000902E0300943577050080841E08000020DF
:1001D0004E0A000000C80C333333330F986E12837D
:1001E0001141EF8D2114893BE65516CFFEE6DB1851
:1001F000D1844B381BF77C1D901DA4BBE424203216
:1002000084725E228100C9F124ECA1E53D274E41B4
:100210004E494E495459494E46CDCCCC3D0AD72380
:100220003C17B7D13877CC2B329595E6241FB14FC8
:100230000A000020410000C84200401C4620BCBE0D
:100240004CCA1B0E5AAEC59D740011241FBECFEFC1
:10025000D0E4DEBFCDBF12E0A0E0B1E0EEE7FFE802
:1002600000E00BBF02C007900D92AC39B107D9F77F
:1002700025E1ACE9B2E001C01D92A735B207E1F774
:100280000E94AE2F0C94BD47BBCECF93DF938091DD
:10029000D91480FD0AC09091B0028091D2148917C0
:1002A00020F48091B0020E947E3D80912F159091A4
:1002B0003015A0913115B09132158093AA14909306
:1002C000AB14A093AC14B093AD146091AA147091C8
:1002D000AB148091AC149091AD140E94022D8091CA
:1002E000B1029091B202A895009749F0EFE9FFE0C2
:1002F0003197F1F700C00000A8950197F5CFC6E04F
:10030000C15019F10E94ED2B8091D91480FD1DC0C0
:10031000D091D21410921D1510921C1510924815F0
:100320000E94893F8091D214D81305C08091D214C5
:100330008093B0020AC0FFEF20E782E0F150204036
:100340008040E1F700C00000DBCF60918910709120
:100350008A1080918B1090918C10DF91CF9108952D
:10036000CF93DF938091D91481FD0AC090919A0AAE
:1003700080914915891720F480919A0A0E947C3E49
:100380001092AA141092AB141092AC141092AD14E7
:100390006091AA147091AB148091AC149091AD143B
:1003A0000E94022D8091B1029091B202A89500970F
:1003B00049F0EFE9FFE03197F1F700C00000A895A0
:1003C0000197F5CF00990BC00E94473BFFEF20E754
:1003D00082E0F15020408040E1F700C00000C7E01B
:1003E000C15019F10E946C2C8091D91481FD1DC05F
:1003F000D09149151092D8141092D71410924A1522
:100400000E94CF3F80914915D81305C080914915AE
:1004100080939A0A0AC09FEFE0E7F2E09150E04033
:10042000F040E1F700C00000DBCFDF91CF910895ED
:100430002F923F924F925F926F927F928F929F92F4
:10044000AF92BF92CF92DF92EF92FF920F931F93E2
:10045000CF93DF9300D01F92CDB7DEB72DB73EB755
:100460003B832A838091A906EDB7FEB722E0829FE5
:10047000E019F10911240FB6F894FEBF0FBEEDBFCD
:100480008DB79EB701967C01D090D214C0904915CB
:100490004090841450908514609086147090871456
:1004A0008091AA029091AB0280329E4418F080E6BF
:1004B0009AEE0AC08091AA029091AB029C01220F91
:1004C000331F820F931FC2969093B2028093B102A2
:1004D0006091B4027091B5028091B6029091B7021A
:1004E0002091B9023091BA024091BB025091BC02F6
:1004F0000E941D41181684F08091B9029091BA02B1
:10050000A091BB02B091BC028093B4029093B5025B
:10051000A093B602B093B7026091B4027091B50295
:100520008091B6029091B7022091B9023091BA023F
:100530004091BB025091BC028090A6029090A7020D
:10054000A090A802B090A9020E94B840A501940111
:100550000E9421410E9418430E948E416983372ED8
:100560008091D91480FD2DC010921D1510921C157C
:1005700060914314709144148091451490914614F5
:100580002091AA063091AB064091AC065091AD0681
:100590000E946C4218164CF46091431470914414FC
:1005A000809145149091461408C06091AA067091FC
:1005B000AB068091AC069091AD060E94693A0E940C
:1005C0007E3D8091D91481FFCBDE60914314709100
:1005D000441480914514909146140E94022D139862
:1005E000129811988091B1029091B202A89500974B
:1005F00049F0EFE9FFE03197F1F700C00000A8955E
:100600000197F5CF2090A9066091AA067091AB06DC
:100610008091AC069091AD060E94022D5701870192
:10062000222071F00E949A28F801819391938F0102
:100630002A948981932D009799F301970000FBCFAD
:100640002090A9062220D1F02A94022D10E0F80172
:10065000EE0FFF1FEE0DFF1D6081718180E090E0C5
:100660000E94BA41000F111F000F111FF801E1563F
:10067000F54F6083718382839383E4CF6091431449
:100680007091441480914514909146140E94022D5B
:10069000139A129811988091B1029091B202A89584
:1006A000009749F0EFE9FFE03197F1F700C0000053
:1006B000A8950197F5CF1091A9066091AA067091AF
:1006C000AB068091AC069091AD060E94022D1123DD
:1006D00071F00E949A28F501819391935F01115066
:1006E0008981932D009799F301970000FBCFB0907B
:1006F000A906BB20D1F0BA940B2D10E0F801EE0F43
:10070000FF1FEE0DFF1D6081718180E090E00E946F
:10071000BA41000F111F000F111FF801E255F94FE8
:100720006083718382839383E4CF809119148B7FDC
:10073000809319148091181482608093181460912A
:1007400084147091851480918614909187140E946E
:10075000022D80914915C81639F01092D8141092C4
:10076000D7148C2D0E947C3E8091D214D81639F07B
:1007700010921D1510921C158D2D0E947E3DC301F7
:10078000B2010E94022D1398129811988091B10223
:100790009091B202A895009749F0EFE9FFE03197F8
:1007A000F1F700C00000A8950197F5CF80911814CB
:1007B0008E7F8093181480911F148E7F80931F1456
:1007C0002A813B810FB6F8943EBF0FBE2DBF0F901C
:1007D0000F900F90DF91CF911F910F91FF90EF90AD
:1007E000DF90CF90BF90AF909F908F907F906F9051
:1007F0005F904F903F902F9008954F925F926F922D
:100800007F928F929F92AF92BF92CF92DF92EF92A0
:10081000FF92CF93DF93CDB7DEB72C970FB6F89446
:10082000DEBF0FBECDBF69877A878B879C87290182
:100830003A018091B3028983812C912C5401C12CFF
:10084000D12C7601A981AA2309F44AC013981298E1
:100850001198AFE8B1E01197F1F700C00000809166
:10086000A40290E00E94DD28C60ED71EE81EF91EE5
:100870008091F513882321F08091A502806207C042
:1008800080918410882329F08091A5028061809353
:10089000A502139A129811988FE891E00197F1F749
:1008A00000C000008091A40290E00E94DD28860E26
:1008B000971EA81EB91E8091F513882321F0809100
:1008C000A502806807C080918410882329F0809158
:1008D000A50280648093A502998191509983B2CF3B
:1008E0008091B80281FF23C01398129811988FE865
:1008F00091E00197F1F700C000008091A40290E020
:100900000E94DD28C60ED71EE81EF91E8091F51341
:10091000882321F08091D914806207C080918410CF
:10092000882329F08091D91480618093D914809113
:10093000511590915215A0915315B091541589837A
:100940009A83AB83BC838091001590910115A0918F
:100950000215B09103158D839E83AF83B887C701BD
:10096000B6010E94BA4129853A854B855C850E9473
:10097000B54229813A814B815C810E94B9402D8129
:100980003E814F8158850E94B542609389107093D3
:100990008A1080938B1090938C10C090CD14D090BF
:1009A000CE14E090CF14F090D0148091C91490919F
:1009B000CA14A091CB14B091CC1489839A83AB83D1
:1009C000BC83C501B4010E94BA41A30192010E94F7
:1009D000B542A70196010E94B94029813A814B8115
:1009E0005C810E94B54260934012709341128093E3
:1009F0004212909343126091891070918A108091F5
:100A00008B1090918C102091F5143091F614409138
:100A1000F7145091F814C0904012D0904112E09019
:100A20004212F09043120E94B542A70196010E9423
:100A3000B94060933B1270933C1280933D129093A7
:100A40003E122C960FB6F894DEBF0FBECDBFDF91DD
:100A5000CF91FF90EF90DF90CF90BF90AF909F909D
:100A60008F907F906F905F904F9008955F926F92FC
:100A70007F928F929F92AF92BF92CF92DF92EF922E
:100A8000FF920F931F93CF93DF93C091A906D0E0FD
:100A900010E000E0912CC12CD12C7601CC2381F107
:100AA000C15084E0C89F90011124F901E156F54F2F
:100AB0005F016081718182819381F901E255F94F73
:100AC00020813181428153810E94B542562E672E8A
:100AD000782E892E262F372F482F592F6D2F712FC3
:100AE000802F992D0E941D4187FFD8CFF501C0802E
:100AF000D180E280F380D52D162D072D982CCECFF6
:100B0000C701B601DF91CF911F910F91FF90EF9038
:100B1000DF90CF90BF90AF909F908F907F906F901D
:100B20005F900895CF92DF92EF92FF92139A1298FE
:100B3000119A8FE891E00197F1F700C0000084E17D
:100B400090E00E94AE28139A129A119A0E94BA411C
:100B50002DEC3CEC4CE45DE30E94B54220910B147B
:100B600030910C1440910D1450910E140E94B54216
:100B70006B017C019B01AC0160E070E080E897E4D0
:100B80000E94B8409B01AC01C701B6010E942141FF
:100B90002091FE133091FF134091001450910114E5
:100BA000C0908010D0908110E0908210F09083105F
:100BB0000E94B542A70196010E94B5420E9475426B
:100BC0002091F6133091F7134091F8135091F913D7
:100BD0000E94B5422EE13FEC4BE55BE30E94B94039
:100BE0009B01AC0160E070E080E89FE30E9421413E
:100BF00023E333E948E853E40E94B8406093991036
:100C000070939A1080939B1090939C108091B814CD
:100C100087FD48C08091B81480FD44C060910714DE
:100C2000709108148091091490910A1420915F1416
:100C30003091601440916114509162140E946C4292
:100C40001816A4F06091991070919A1080919B10E1
:100C500090919C1020913F14309140144091411488
:100C6000509142140E946C421816E4F41698179A98
:100C70008091B81481608093B8148091B814826018
:100C80008093B81480919414909195149093491482
:100C9000809348148FE19EE40197F1F700C00000B3
:100CA000169A179AFF90EF90DF90CF900C941A3419
:100CB000CF92DF92EF92FF9213981298119A8FE8D9
:100CC00091E00197F1F700C0000084E190E00E94FC
:100CD000AE28139A129A119A0E94BA412DEC3CEC5C
:100CE0004CE45DE30E94B54220910F143091101442
:100CF00040911114509112140E94B5426B017C0175
:100D00009B01AC0160E070E080E897E40E94B8408D
:100D10009B01AC01C701B6010E94214120919110B5
:100D2000309192104091931050919410C0905012B5
:100D3000D0905112E0905212F09053120E94B5429E
:100D4000A70196010E94B5420E947542209144126B
:100D50003091451240914612509147120E94B5427F
:100D60002EE13FEC4BE55BE30E94B9409B01AC01F7
:100D700060E070E080E89FE30E94214123E333E9D3
:100D800048E853E40E94B840609307147093081435
:100D90008093091490930A148091B81487FD48C079
:100DA0008091B81480FD44C06091071470910814BC
:100DB0008091091490910A1420915F14309160146D
:100DC00040916114509162140E946C421816A4F074
:100DD0006091991070919A1080919B1090919C1045
:100DE00020913F143091401440914114509142148D
:100DF0000E946C421816E4F41698179A8091B81461
:100E000081608093B8148091B81482608093B81484
:100E10008091941490919514909349148093481460
:100E20008FE19EE40197F1F700C00000169A179A2F
:100E3000FF90EF90DF90CF900C941A348F929F9296
:100E4000AF92BF92CF92DF92EF92FF92139A129AD3
:100E500011988FE891E00197F1F700C0000084E15C
:100E600090E00E94AE28139A129A119A809035123F
:100E700090903612A0903712B0903812C090ED13B7
:100E8000D090EE13E090EF13F090F0130E94BA416F
:100E90002DEC3CEC4CE45DE30E94B542A5019401CD
:100EA0000E94B542A70196010E94B94060930314C5
:100EB00070930414809305149093061460910314A6
:100EC0007091041480910514909106142091AC0245
:100ED0003091AD024091AE025091AF020E941D418F
:100EE00087FD14C06091031470910414809105145F
:100EF0009091061420919C0230919D0240919E0297
:100F000050919F020E946C4218162CF48091A50209
:100F100084608093A502FF90EF90DF90CF90BF9008
:100F2000AF909F908F9008952F923F924F925F9233
:100F30006F927F928F929F92AF92BF92CF92DF92E9
:100F4000EF92FF920F931F93CF93DF93CDB7DEB74E
:100F50002D970FB6F894DEBF0FBECDBF1092A5023D
:100F6000209149152A833091D2143B8380918414B7
:100F700090918514A0918614B091871488879987E1
:100F8000AA87BB878091B80281FF4FC09091A402CD
:100F900099836091B30270E080E090E00E94BA41D2
:100FA00020E030E040E85FE30E94B9406B017C0143
:100FB000A9816A2F70E080E090E00E94BA419B0115
:100FC000AC01C701B6010E94B5429B01AC0160E0D3
:100FD00070E080E89FE30E942141062F372E89832D
:100FE000192F6091A402B090B30270E080E090E00D
:100FF0000E94BA416B017C016B2D70E080E090E0B3
:101000000E94BA419B01AC01C701B6010E94B542E2
:101010009B01AC0160E070E080E89FE30E94214109
:101020006C837D838E839F8329C06091A402B091DD
:10103000B302B98370E080E090E00E94BA416B0196
:101040007C01E9816E2F70E080E090E00E94BA415F
:101050009B01AC01C701B6010E94B5429B01AC01E6
:1010600060E070E080E89FE30E942141062F372E68
:101070008983192F6C837D838E839F838091AA023D
:101080009091AB0280329E4418F080E69AEE0AC03E
:101090008091AA029091AB029C01220F331F820F14
:1010A000931FC2969093B2028093B102EED86B0167
:1010B0007C0156D98091B80280FFB6C08090A00212
:1010C0009090A102A090A202B090A3026091A90604
:1010D00070E061507109072E000C880B990B0E947B
:1010E000BC419B01AC01C501B4010E9421412B010F
:1010F0003C0120919B0A30919C0A40919D0A50919D
:101100009E0AC701B6010E94B5426B017C01609145
:10111000A90670E061507109072E000C880B990B2D
:101120000E94BC41A30192010E94B5420E94384333
:101130004B015C016091A0027091A1028091A2021A
:101140009091A30226EA3FE049EC5FE30E941D4133
:10115000A5019401181644F460E070E080E090E48A
:101160000E94B8409B01AC01C701B6010E94214119
:101170006B017C01212C8091A906281608F043C040
:10118000222D30E03D872C87B901330F880B990B56
:101190000E94BC41A30192010E94B5424B015C0137
:1011A00026EA3FE049EC5FE30E941D41AC85BD8526
:1011B000AA0FBB1FAA0FBB1FBD87AC8718164CF028
:1011C000C501B4010E9438439B01AC01C701B601BF
:1011D0000EC0C501B4010E9438439B01AC0160E020
:1011E00070E080E090E40E94B840A70196010E9460
:1011F000B542EC85FD85E354FD4F608371838283A6
:1012000093832394B8CF8091B80282FF4DC0E091C0
:10121000A906B4E0EB9FF0011124E754FD4F608173
:1012200071818281938148C020919B0A30919C0AF0
:1012300040919D0A50919E0AB090A906C701B6013F
:101240000E94B5426B017C016B2D70E06150710909
:10125000072E000C880B990B0E94BC419B01AC012E
:10126000C701B6010E9421414B015C01D12C809144
:10127000A906D81640F6ED2CF12C6D2D70E080E01B
:1012800090E00E94BA41A50194010E94B542F70185
:10129000EE0FFF1FEE0FFF1FE354FD4F60837183BE
:1012A00082839383D394E3CF6091BD027091BE0299
:1012B0008091BF029091C0020E94022D8091B102E4
:1012C0009091B202A895009749F0EFE9FFE03197BD
:1012D000F1F700C00000A8950197F5CFA12C8091EF
:1012E000A906A81608F076C08091B802CA2CD12CA5
:1012F00082FF0CC0E091A906F0E0EC19FD09EE0FA9
:10130000FF1FEE0FFF1FE754FD4F07C0F601EE0F62
:10131000FF1FEE0FFF1FE354FD4F6081718182813B
:1013200093810E94022DA895E090AA02F090AB0252
:10133000F1E0EF1AF1081C86FFEFEF16FF0609F443
:10134000C7C0A8952C85213081F4ECDB882339F0C7
:101350008091A50282608093A50281E001C080E0B7
:10136000ABE4B6E01197F1F712C0BC85B230A9F436
:101370009FDC882339F08091A50282608093A502CA
:1013800081E001C080E0EBE4F6E03197F1F700C0C6
:101390000000882309F4CAC01DC0FC85F33051F455
:1013A0004DDD8BE39AE00197F1F700C0000094E077
:1013B0009C870CC0ABE9BFE01197F1F700C00000BB
:1013C000BC85BF5FBC87BA3008F01C86E1E0EE1A2E
:1013D000F108B2CF009904C08091A502816003C0DA
:1013E0008091A5028E7F8093A5028091561480681B
:1013F0008093561480911814826080931814809101
:1014000019148D7F8093191488859985AA85BB85C9
:101410008093AA149093AB14A093AC14B093AD1422
:10142000809149159A81981739F01092D81410922A
:10143000D714892F0E947C3E8091D214AB81A817CB
:1014400039F010921D1510921C158A2F0E947E3DB6
:101450006091AA147091AB148091AC149091AD146A
:101460000E94022D1398129811988091B1029091C8
:10147000B202A895009749F0EFE9FFE03197F1F744
:1014800000C00000A8950197F5CF809118148E7FB9
:101490008093181480911F148E7F80931F142D96B3
:1014A0000FB6F894DEBF0FBECDBFDF91CF911F9175
:1014B0000F91FF90EF90DF90CF90BF90AF909F90F3
:1014C0008F907F906F905F904F903F902F900895F6
:1014D0002C813D814E815F81602F732D8981912FF9
:1014E0008CD94091891050918A1060918B10709125
:1014F0008C10C601880F991F880F991FFC01E156B7
:10150000F54F408351836283738340913B12509126
:101510003C1260913D1270913E12FC01E255F94F70
:101520004083518362837383A394D9CEFC85FF5F8C
:10153000FC874CCFCF93C82F8091EC13C11102C010
:101540008F7B03C0C13039F480648093EC138091A9
:10155000EC138F770AC0C23011F48F7B01C0806416
:101560008093EC138091EC1380688093EC1340918E
:10157000EC136091391282E00E94F52E8FE891E021
:101580000197F1F700C00000C0938B0ECF91089532
:10159000CF93C82F8091EC13C11102C08F7E03C07E
:1015A000C13039F480618093EC138091EC138F7D0E
:1015B0000AC0C23011F48F7E01C080618093EC13A9
:1015C0008091EC1380628093EC134091EC13609156
:1015D000391282E00E94F52E8FE891E00197F1F731
:1015E00000C00000C0938E0ECF91089590918B0E95
:1015F00080918C0E981719F080918C0E9BDF909142
:101600008E0E80918D0E981719F080918D0EC0CF9F
:101610000895BC018091900E8111FCCF90E0292F9C
:1016200030E0FB01E20FF31F4081442339F0808159
:10163000F901E857F04F80839F5FF1CF8091171435
:1016400086FD06C0F901E857F04F8AE080839F5F6E
:10165000E92FF0E0E857F04F10829093900E81E070
:101660008093870F8091C00085FFFCCF5A9A85E058
:101670008A95F1F700008091C10080648093C100D9
:101680008091880F8093C6000895AC0190917C10E2
:10169000992379F09150292F30E0F901EE56F14F5E
:1016A0008081FA01E20FF31F2081281789F380E07F
:1016B000089581E00895AC0190917C10691778F449
:1016C0009150292F30E0F901EE56F14F8081FA0157
:1016D000E20FF31F2081281789F380E0089581E04D
:1016E00008959C0110927C1080917C10F901E80F04
:1016F000F11D8081E0917C10F0E0882379F08091E9
:101700007C10D901A80FB11D8C91EE56F14F80834A
:1017100090917C109F5F90937C10E6CFEE56F14F36
:1017200010820895AC01E0917C10F0E0EE56F14F8C
:1017300089E0808390917C109F5F90937C1090E073
:10174000DA01A90FB11D8C91E0917C10F0E08823A3
:1017500059F08C91EE56F14F80839F5F20917C1061
:101760002F5F20937C10ECCFEE56F14F108208953E
:10177000AC0160937C1090E0FA01E90FF11D20812B
:10178000E0917C10F0E0EE56F14F222341F02083EF
:1017900020917C102F5F20937C109F5FEDCF1082F3
:1017A0000895E0917C10F0E0EE56F14F8FE38083D6
:1017B00080917C108F5F80937C10E0917C10F0E032
:1017C000EE56F14F10820895FB012E2F261B421773
:1017D00041F0DC013D91CD012081321304C03196EE
:1017E000F4CF81E0089580E00895AC0190E0E92F06
:1017F000F0E0DB01AE0FBF1F2C91E40FF51F222399
:1018000019F020839F5FF3CF10820895CF93DF9369
:10181000DC0190E0FD01E90FF11D8081882311F0CA
:101820009F5FF8CF492F842F891BEB01C80FD11D73
:101830008881242F30E0FD01E20FF31F882321F07F
:10184000888180834F5FEFCF1082DF91CF91089521
:101850000F93FC01CB01BA0103E025E0AF010E9428
:10186000D6430F910895CF93DF93CDB7DEB7C65619
:10187000D1090FB6F894DEBF0FBECDBF809117140B
:1018800087FF17C08091900E811113C08091920E36
:10189000811107C0809117148F7B809317141092C9
:1018A0008F0E82E99EE0B5DE809117148F778093CA
:1018B00017148091171487FD3BC090918F0E809173
:1018C000A906981760F5E0918F0E84E0E89FF0017B
:1018D0001124E156F54F4081518162817381CE011F
:1018E0000196B6DF10927C10CE0101961BDFE091CD
:1018F0008F0E84E0E89FF0011124E255F94F4081FA
:10190000518162817381CE010196A2DFCE010196E1
:1019100009DF80918F0E8F5F80938F0E04C010922D
:101920008F0E1092920E8091171480688093171476
:10193000CA59DF4F0FB6F894DEBF0FBECDBFDF919F
:10194000CF9108954F925F926F927F928F929F9264
:10195000AF92BF92EF92FF920F931F93CF93DF93BB
:10196000EC018B0180E091E0BCDECE018EDE8823AD
:1019700009F469C080911414909118144AE0B801D8
:101980000E948045C801CEDE4091891050918A1096
:1019900060918B1070918C10C8015ADFC801C2DEB3
:1019A00040913B1250913C1260913D1270913E1259
:1019B000C8014EDFC801B6DE40918D1050918E10E7
:1019C00060918F1070919010C80142DFC801AADEAB
:1019D0004091031450910414609105147091061401
:1019E000C80136DFC8019EDE4091991050919A10CF
:1019F00060919B1070919C10C8012ADFC80192DE93
:101A000040910714509108146091091470910A14C0
:101A1000C8011EDFC80186DE80911B1480FF0CC048
:101A2000409148125091491260914A1270914B12A4
:101A3000C8010EDFC80176DE82E99EE0EADD809112
:101A400018148E7F2DC286E091E04BDECE011DDEA4
:101A5000882349F180917C10FE01E80FF11D8081FF
:101A6000811112C0F8018081813321F48091191411
:101A7000816007C0803311F00C945D1680911914B9
:101A80008E7F809319140AC080917C10C80FD11DDD
:101A900088818F3311F00C945D1683DE80911914C8
:101AA00080FF39C00EC58FE091E01BDEF0907C1006
:101AB000CE01EBDD811132C08CE391E012DEF090BB
:101AC0007C10CE01E2DD811171C083E292E009DE7B
:101AD000F0907C10CE01D9DD882309F459C36F2D15
:101AE00082E691E045DE6F2DCE01E5DD882309F425
:101AF000AAC180917C10C80FD11D888181110C94DE
:101B00005D160E941A34882309F41FC180911914AC
:101B10008D7F809319148DE091E073C06F2D81E16A
:101B200091E026DE6F2DCE01C6DD882349F080913D
:101B30001414909118144AE0B8010E9480457ACF9D
:101B40006F2D86E191E014DE6F2DCE01B4DD882388
:101B500021F08BE091E0C5DD55C06F2D8BE191E068
:101B600007DE6F2DCE01A7DD882349F080E291E0EA
:101B7000D9DD8BE291E0D6DD8AE294E142C06F2D9F
:101B800088EC91E0F5DD6F2DCE0195DD882309F419
:101B900093CF8BE091E0C6DD82E99EE03ADD809153
:101BA000900E8111FCCFF8940C9400006F2D82E40C
:101BB00091E0DEDD6F2DCE017EDD882339F180914D
:101BC0007C10FE01E80FF11D8081811108C0C80161
:101BD0000E947B4460939614809196140CC080916F
:101BE0007C10C80FD11D88818F3311F00C945D16C5
:101BF000D8DD80917F144AE0B80190E00E948045D2
:101C0000C80190DD82E99EE00C945F166F2D87E499
:101C100091E0AEDD6F2DCE014EDD882339F180914C
:101C20007C10FE01E80FF11D808181110CC0C801FC
:101C30000E945B4460934314709344148093451452
:101C4000909346140AC080917C10C80FD11D8881E2
:101C50008F3311F00C945D16A4DD40914314509124
:101C6000441460914514709146142FC06F2D8FE479
:101C700091E07EDD6F2DCE011EDD882349F180913C
:101C80007C10FE01E80FF11D808181110CC0C8019C
:101C90000E945B4460939E1470939F148093A014E1
:101CA0009093A1140AC080917C10C80FD11D888127
:101CB0008F3311F00C945D1674DD40919E14509199
:101CC0009F146091A0147091A114C801C1DD98CF38
:101CD0006F2D87E591E04CDD6F2DCE01ECDC882384
:101CE00009F4F3CE80917C10FE01E80FF11D808194
:101CF00081111DC0C8010E947B446136FAEE7F0746
:101D0000810591051CF080E69AEE07C016161706AD
:101D1000180619063CF081E090E09093B31480938C
:101D2000B2140EC07093B3146093B21409C08091C2
:101D30007C10C80FD11D88818F3309F0BEC731DDFB
:101D40006091B2147091B3142AC18091141485FD6E
:101D5000DDCE8091141480FFD9CE80911914826059
:101D6000809319148091AA029091AB0280329E4414
:101D700018F080E69AEE0AC08091AA029091AB0218
:101D80009C01220F331F820F931FC2969093B202C1
:101D90008093B1027090A906E090AA02F090AB0285
:101DA0006091A9065090B3026090A402C091B10264
:101DB000D091B20270E080E090E00E94BA414B0105
:101DC0005C01652D70E080E090E00E94BA419B01CB
:101DD000AC01C501B4010E94B5424B015C01662D06
:101DE00070E080E090E00E94BA4128E539E344EBDE
:101DF0005CE30E94B5422EEA37E441E65EE30E94CE
:101E0000B9409B01AC01C501B4010E94B5424B0130
:101E10005C01672D70E080E090E00E94BA412B01E8
:101E20003C01B70180E090E00E94BA419B01AC0107
:101E3000C301B2010E94B5429B01AC01C501B401CE
:101E40000E94B940FEC16F2D87E691E091DC6F2DB5
:101E5000CE0131DC8823A9F180917C10C80FD11DFF
:101E600088818F3309F029C780911714806480938B
:101E7000171410928F0E95DC8091A5024AE0B801EC
:101E800090E00E948045C8014DDC82E99EE0C1DB04
:101E9000809117148F7780931714809118148D7F79
:101EA00080931814DF91CF911F910F91FF90EF90C5
:101EB000BF90AF909F908F907F906F905F904F906A
:101EC00008956F2D8CE691E053DC6F2DCE01F3DB8E
:101ED000882351F180917C10FE01E80FF11D808173
:101EE000811116C0C8010E947B446B3F71058105BA
:101EF000910514F08AEF06C06430710581059105E3
:101F000024F483E08093A9060CC06093A90609C05D
:101F100080917C10C80FD11D88818F3309F0CDC608
:101F200040DC8091A90667CE6F2D8CE591E020DC26
:101F30006F2DCE01C0DB8823C9F180917C10FE019A
:101F4000E80FF11D808181111DC0C8010E947B44F2
:101F50006136EAEE7E07810591051CF080E69AEE77
:101F600007C016161706180619063CF081E090E027
:101F70009093AB028093AA020EC07093AB02609361
:101F8000AA0209C080917C10C80FD11D88818F33AF
:101F900009F093C606DC6091AA027091AB0280E062
:101FA00090E02AE0A8010E948A452ACE6F2D83E79F
:101FB00091E0DEDB6F2DCE017EDB882359F180912D
:101FC0007C10FE01E80FF11D8081811117C0C8014E
:101FD0000E947B446F3F71058105910519F014F053
:101FE0008FEF06C0161617061806190624F081E0B2
:101FF0008093A4020CC06093A40209C080917C105D
:10200000C80FD11D88818F3309F057C6CADB809174
:10201000A402F1CD6F2D8AE791E0AADB6F2DCE01EE
:102020004ADB882359F180917C10FE01E80FF11DF5
:102030008081811117C0C8010E947B446F3F7105E8
:102040008105910519F014F08FEF06C016161706DA
:102050001806190624F081E08093B3020CC0609347
:10206000B30209C080917C10C80FD11D88818F33C5
:1020700009F023C696DB8091B302BDCD6F2D82E4BB
:1020800091E076DB6F2DCE0116DB882319F180916C
:102090007C10FE01E80FF11D808181110FC0C80185
:1020A0000E947B446F3F71058105910520F089E115
:1020B00091E038DB0CC06093B80209C080917C10BD
:1020C000C80FD11D88818F3309F0F7C56ADB809175
:1020D000B80291CD6F2D83E891E04ADB6F2DCE01E0
:1020E000EADA882331F180917C10FE01E80FF11DBE
:1020F000808181110CC0C8010E945B446093A002E2
:102100007093A1028093A2029093A30209C08091D0
:102110007C10C80FD11D88818F3309F0CEC541DBFB
:102120004091A0025091A1026091A2027091A3027D
:10213000CCCD6F2D8DE891E01BDB6F2DCE01BBDA8E
:10214000882331F180917C10FE01E80FF11D808120
:1021500081110CC0C8010E945B4460939B0A70937C
:102160009C0A80939D0A90939E0A09C080917C10DE
:10217000C80FD11D88818F3309F09FC512DB4091B4
:102180009B0A50919C0A60919D0A70919E0A9DCD78
:1021900086E991E0A6DAF0907C10CE0176DA882309
:1021A00009F4C9C06F2D82E691E0E2DA6F2DCE010D
:1021B00082DA882309F461C080917C10C80FD11D98
:1021C000888181117AC50E941A34811108C08091DA
:1021D000141485FD04C08091141480FD04C0809106
:1021E00019148B7F96CC80911914846080931914F4
:1021F0008091AA029091AB0280329E4418F080E652
:102200009AEE0AC08091AA029091AB029C01220F23
:10221000331F820F931FC2969093B2028093B10234
:102220006091A906C091B102D091B20270E080E045
:1022300090E00E94BA4120E030E040E251E40E9488
:10224000B54220E030E048E453E40E94B9404B013D
:102250005C01BE0180E090E00E94BA4120E030E0E5
:1022600040E850E40E94B5429B01AC01C501B401B5
:102270000E94B9400E94894194CE6F2D8DE991E072
:1022800077DA6F2DCE0117DA882331F180917C1037
:10229000FE01E80FF11D808181110CC0C8010E9470
:1022A0005B446093AA067093AB068093AC06909350
:1022B000AD0609C080917C10C80FD11D88818F3375
:1022C00009F0FBC46EDA4091AA065091AB0660910A
:1022D000AC067091AD06F9CC6F2D8CE591E048DA33
:1022E0006F2DCE01E8D9882331F180917C10FE0159
:1022F000E80FF11D808181110CC0C8010E945B4470
:102300006093B4027093B5028093B6029093B702C3
:1023100009C080917C10C80FD11D88818F3309F0CE
:10232000CCC43FDA4091B4025091B5026091B6023C
:102330007091B702CACC85EA91E0D3D9F0907C10B5
:10234000CE01A3D9882309F42BC26F2D8CEA91E02A
:102350000FDA6F2DCE01AFD98823E9F080917C1080
:10236000C80FD11D88818F3309F0A7C440914D1546
:1023700050914E1560914F1570915015C80168DA53
:10238000C801D0D94091C5145091C6146091C714AA
:102390007091C8149ACC6F2D83EB91E0E9D96F2D21
:1023A000CE0189D98823C1F180917C10FE01E80F0C
:1023B000F11D8081811120C0F801808190E0C097DB
:1023C0000A9708F07AC4C8010E947B446530710501
:1023D0008105910548F08091D9148E7F8093D9149E
:1023E0008FEF8093FD1440C02091D9142160209379
:1023F000D9146093FD140DC080917C10C80FD11DBD
:1024000088818F3309F059C4CCD98091FD148F3F56
:1024100059F18091FD14EFCB6F2D8FEB91E0A8D98E
:102420006F2DCE0148D98823D1F180917C10FE0117
:10243000E80FF11D8081811122C0F801808190E0B8
:10244000C0970A9708F039C4C8010E947B446630DF
:1024500071058105910558F08091D9148D7F809385
:10246000D9148FEF8093FF148AEB91E0CACB2091AF
:10247000D91422602093D9146093FF140DC0809169
:102480007C10C80FD11D88818F3309F016C489D9FB
:102490008091FF148F3F41F38091FF14ACCB6F2DDF
:1024A00086EC91E065D96F2DCE0105D9882361F0C6
:1024B00080917C10C80FD11D88818111FEC30E94BC
:1024C000473B8BE091E09DCB6F2D8CEC91E050D998
:1024D0006F2DCE01F0D8882359F180917C10FE0138
:1024E000E80FF11D8081811117C0F801808190E013
:1024F000C0970A9708F0E1C3C8010E947B446F3F70
:1025000071058105910529F020F08FEF8093331537
:102510000CC06093331509C080917C10C80FD11D89
:1025200088818F3309F0C9C33CD98091331563CBBF
:102530006F2D83ED91E01CD96F2DCE01BCD888237F
:1025400059F180917C10FE01E80FF11D808181110D
:1025500017C0F801808190E0C0970A9708F0ADC3DA
:10256000C8010E947B446F3F71058105910529F0E8
:1025700020F08FEF8093F4140CC06093F41409C022
:1025800080917C10C80FD11D88818F3309F095C3CD
:1025900008D98091F4142FCB6F2D8AED91E0E8D803
:1025A0006F2DCE0188D8882309F4FAC0F0907C10F2
:1025B0006F2D82E491E0DCD86F2DCE017CD888238A
:1025C00009F471C080917C10FE01E80FF11D80813B
:1025D00081114EC08091191480688093191444E0D1
:1025E00065EB71E0C801F0D8813071F48091D914A5
:1025F00084608093D9148091D914877F8093D914F3
:102600008FEF8093D2143DC044E061EC71E0C801CB
:10261000DBD8813071F48091D91488608093D9140B
:102620008091D9148B7F8093D9148FEF80934915B3
:1026300028C0809119148F77809319148091D91430
:1026400082FF04C08FEF8093D21407C08091D91409
:1026500083FF03C08FEF809349158091D9148B7F3E
:102660008093D9148091D914877F8093D91409C09D
:1026700080917C10C80FD11D88818F3309F01DC354
:1026800090D88091191487FF46CA8091D91482FF8F
:1026900003C085EB91E0B5CA8091D91483FF27C0B0
:1026A00081EC91E0AECA6F2D82EE91E061D86F2D82
:1026B000CE0101D88823B1F180917C10FE01E80F92
:1026C000F11D8081811120C0C8010E945B442091CE
:1026D000191427FD0FC08091191487FF40C0809105
:1026E000D91482FD1BC08091D91483FD17C08FEDD2
:1026F00091E087CA2091D91422FD04C02091D914F9
:1027000023FFE9CF5ED3E7CF80917C10C80FD11DA6
:1027100088818F3309F0D1C244D8DDCFA1D7AB0176
:10272000BC01D3CA6F2D80EF91E022D86F2DCE016E
:102730000E945B0B8823A1F180917C10FE01E80FC1
:10274000F11D8081811118C0C8010E945B44209155
:10275000191427FD07C08091191487FD17C088EE52
:1027600091E04FCA2091D91422FD04C02091D914C0
:1027700023FFF1CFEED3EFCF80917C10C80FD11D96
:1027800088818F3309F099C20CD8E5CF8091D91494
:1027900082FD04C08091D91483FFA9CFBFD7BFCFDA
:1027A00087EF91E00E94710BF0907C10CE010E94A7
:1027B000450B882309F46DC06F2D82E491E00E94DF
:1027C000B80B6F2DCE010E945B0B882309F461C00A
:1027D00080917C10FE01E80FF11D808181112BC0DA
:1027E000C8010E947B44611571058105910559F46A
:1027F0008091B81480688093B8148091B8148D7F4C
:102800008093B81435C0613071058105910559F484
:102810008091B81480688093B8148091B814826055
:102820008093B8141AC08091B8148F778093B8142D
:102830008BE092E0E6C980917C10C80FD11D8881A1
:102840008F3309F03AC20E94D10B8091B81480FFF7
:1028500007C08091B81487FF03C084E092E0D1C91B
:102860008091B81480FD07C08091B81487FF03C021
:102870008CEF91E0C6C98091B81480FF07C08091A9
:10288000B81487FD03C080E192E0BBC988E192E003
:10289000B8C981E292E00E94710BF0907C10CE01E9
:1028A0000E94450B882309F484C06F2D87E292E0D3
:1028B0000E94B80B6F2DCE010E945B0B882349F05C
:1028C00040918414509185146091861470918714FE
:1028D000FCC96F2D8DE292E00E94B80B6F2DCE01E6
:1028E0000E945B0B882369F180917C10FE01E80F48
:1028F000F11D8081811118C0F801808190E0C0979E
:102900000A9708F0DAC1C8010E947B44643071055F
:102910008105910520F083E080938C0E02C06093C6
:102920008C0E80918C0E67C980917C10C80FD11DD0
:1029300088818F3309F0C1C10E94D10B80918B0E29
:102940005AC96F2D84E392E00E94B80B6F2DCE011F
:102950000E945B0B882369F180917C10FE01E80FD7
:10296000F11D8081811118C0F801808190E0C0972D
:102970000A9708F0A2C1C8010E947B446430710527
:102980008105910520F083E080938D0E02C0609355
:102990008D0E80918D0E2FC980917C10C80FD11D96
:1029A00088818F3309F089C10E94D10B80918E0EEE
:1029B00022C98AE392E00E94710BF0907C10CE0154
:1029C0000E94450B882309F441C16F2D83E791E0F4
:1029D0000E94B80B6F2DCE010E945B0B882309F477
:1029E0006FC080917C10FE01E80FF11D8081811184
:1029F00056C0F801808190E0C0970A9708F05DC149
:102A0000C8010E947B446F3F71058105910521F04B
:102A10001CF08FEF90E007C016161706180619066F
:102A20003CF081E090E090937F1080937E1004C092
:102A300070937F1060937E1060917E1070917F1074
:102A4000C091021480E090E00E94BA414B015C0109
:102A50006C2F70E080E090E00E94BA419B01AC01D5
:102A6000C501B4010E94B5429B01AC0160E070E079
:102A700080E89FE30E942141609395107093961027
:102A800080939710909398108091D11481608093D7
:102A9000D1148091D11482608093D1140AC08091A6
:102AA0007C10C80FD11D88818F3309F006C10E94A8
:102AB000D10B80917E1090917F104AE0B8019EC8A2
:102AC0006F2D8FE392E00E94B80B6F2DCE010E9414
:102AD0005B0B882309F44AC080917C10FE01E80F4B
:102AE000F11D8081811135C0F801808190E0C0978F
:102AF0000A9708F0E2C0C8010E947B446F3F71054D
:102B00008105910519F014F08FEF06C0161617060F
:102B10001806190624F081E080933A1202C06093EF
:102B20003A1260913A1270E080E090E00E94BA415F
:102B30009B01AC0160E070E080E89FE30E942141CE
:102B400060934C1270934D1280934E1290934F12DB
:102B50000AC080917C10C80FD11D88818F3309F085
:102B6000ACC00E94D10B80913A1245C86F2D89E408
:102B700092E00E94B80B6F2DCE010E945B0B882360
:102B800009F464C080917C10FE01E80FF11D808182
:102B900081114FC0F801808190E0C0970A9708F03A
:102BA0008CC0C8010E947B44653671058105910582
:102BB00014F084E606C0161617061806190624F047
:102BC00081E08093021402C06093021460917E1031
:102BD00070917F10C091021480E090E00E94BA4191
:102BE0004B015C016C2F70E080E090E00E94BA41E4
:102BF0009B01AC01C501B4010E94B5429B01AC012F
:102C000060E070E080E89FE30E94214160939510AE
:102C10007093961080939710909398108091D11490
:102C200081608093D1148091D11482608093D114FB
:102C300009C080917C10C80FD11D88818F33E9F5C0
:102C40000E94D10B809102140C94FB0D83E592E05D
:102C50000E94710BF0907C10CE010E94450B8823DE
:102C600061F16F2D8AE592E00E94B80B6F2DCE01C5
:102C70000E945B0B882349F080917C10C80FD11D06
:102C8000888181111AC061E013C06F2D80E091E04E
:102C90000E94B80B6F2DCE010E945B0B882369F058
:102CA00080917C10C80FD11D8881811106C060E021
:102CB000C8010E941A220C94000E89E191E0DF9174
:102CC000CF911F910F91FF90EF90BF90AF909F9089
:102CD0008F907F906F905F904F900C94090BCF93E3
:102CE000DF93CDB7DEB7CC57D1090FB6F894DEBF6E
:102CF0000FBECDBF80910310833209F056C0909172
:102D000002108091910E981350C0DE01A959BF4F57
:102D100022E030E0AD01922F8EEF820FF901EE5FDD
:102D2000FF4E60816930B1F06081611105C0FA0128
:102D3000E80FF11D108232C08091860F9817A8F518
:102D400080818D932F5F3F4F2731310521F780E63A
:102D500092E01CC0FA01E80FF11D10822091860F4D
:102D60002817E0F09F5FDE01119620E0BD01E92FFA
:102D7000F0E0EE5FFF4E8081882359F080818D93D3
:102D80009F5F2F5F253699F789E692E00E94090B35
:102D90000CC0FB01E20FF11D108201C01982BE01BF
:102DA0006F5F7F4FCA010E94A20CC458DF4F0FB65D
:102DB000F894DEBF0FBECDBFDF91CF9108950C9484
:102DC0005B44CF93DF93CDB7DEB7AC970FB6F894E3
:102DD000DEBF0FBECDBF2091141421FFB1C0DC01B6
:102DE000CB012091D91422FF4CC02091D214211183
:102DF0000BC089A79AA7ABA7BCA744E050E067E740
:102E000071E0CE0189969AC02091D214213059F4F4
:102E10008DA39EA3AFA3B8A744E050E067E671E09E
:102E2000CE0185968BC02091D214223059F489A30B
:102E30009AA3ABA3BCA344E050E067E571E0CE01E8
:102E400081967CC02091D214233059F48D8F9E8FAF
:102E5000AF8FB8A344E050E067E471E0CE014D9637
:102E60006DC02091D214243009F06AC0898F9A8FE6
:102E7000AB8FBC8F44E050E067E371E0CE01499630
:102E80005DC02091D91423FF5BC020914915211109
:102E90000BC08D8B9E8BAF8BB88F44E050E067E208
:102EA00071E0CE0145964AC020914915213059F470
:102EB000898B9A8BAB8BBC8B44E050E06BE171E06B
:102EC000CE0141963BC020914915223059F48D879F
:102ED0009E87AF87B88B44E050E06FE071E0CE0191
:102EE0000D962CC020914915233059F489879A8773
:102EF000AB87BC8744E050E063E071E0CE01099607
:102F00001DC020914915243059F48D839E83AF83D1
:102F1000B88744E050E067EF70E0CE0105960EC040
:102F200020914915253061F489839A83AB83BC8352
:102F300044E050E06BEE70E0CE0101960E948D47B8
:102F4000AC960FB6F894DEBF0FBECDBFDF91CF9128
:102F50000895CF93DF93CDB7DEB7AC970FB6F89453
:102F6000DEBF0FBECDBF2091141421FFB1C0DC0124
:102F7000CB012091D91422FF4CC02091D2142111F1
:102F80000BC089A79AA7ABA7BCA744E050E06BE7AA
:102F900071E0CE0189969AC02091D214213059F463
:102FA0008DA39EA3AFA3B8A744E050E06BE671E009
:102FB000CE0185968BC02091D214223059F489A37A
:102FC0009AA3ABA3BCA344E050E06BE571E0CE0153
:102FD00081967CC02091D214233059F48D8F9E8F1E
:102FE000AF8FB8A344E050E06BE471E0CE014D96A2
:102FF0006DC02091D214243009F06AC0898F9A8F55
:10300000AB8FBC8F44E050E06BE371E0CE0149969A
:103010005DC02091D91423FF5BC020914915211177
:103020000BC08D8B9E8BAF8BB88F44E050E06BE272
:1030300071E0CE0145964AC020914915213059F4DE
:10304000898B9A8BAB8BBC8B44E050E06FE171E0D5
:10305000CE0141963BC020914915223059F48D870D
:103060009E87AF87B88B44E050E063E171E0CE010A
:103070000D962CC020914915233059F489879A87E1
:10308000AB87BC8744E050E067E071E0CE01099671
:103090001DC020914915243059F48D839E83AF8340
:1030A000B88744E050E06BEF70E0CE0105960EC0AB
:1030B00020914915253061F489839A83AB83BC83C1
:1030C00044E050E06FEE70E0CE0101960E948D4723
:1030D000AC960FB6F894DEBF0FBECDBFDF91CF9197
:1030E0000895CF92DF92EF92FF920F931F93CF93A9
:1030F000DF9300D000D0CDB7DEB77C018A01690133
:10310000613069F4CA015BDE69837A838B839C83B7
:1031100044E050E0B701CE0101960E948D4744E0A3
:1031200050E0B701CE0101960E94754749815A814E
:103130006B817C81C8010E94280CB801C6010E94E5
:10314000060C0F900F900F900F90DF91CF911F9171
:103150000F91FF90EF90DF90CF900895EF92FF9244
:103160000F931F93CF93DF938C01EA0179016130B4
:1031700089F4CA010E947B446F3F71058105910566
:1031800009F024F497FF03C060E001C06FEFC801AD
:103190000E949647C8010E9485474AE0BE0190E020
:1031A0000E948045BE01C701DF91CF911F910F9111
:1031B000FF90EF900C94060CCF92DF92EF92FF926B
:1031C0000F931F93CF93DF9300D0CDB7DEB76C0181
:1031D0008A0179016130E1F4CA010E947B446115E2
:1031E000710521E0820791052CF08FEF9FEF9A8304
:1031F000898307C097FF03C01A82198202C07A83AD
:10320000698342E050E0B601CE0101960E948D47ED
:1032100042E050E0B601CE0101960E9475476981F7
:103220007A8180E090E02AE0A8010E948A45B801F6
:10323000C7010E94060C0F900F90DF91CF911F9154
:103240000F91FF90EF90DF90CF900895CF93DF9391
:1032500000D000D0CDB7DEB744E050E0BC01CE01D5
:1032600001960E94754769817A818B819C810F90BC
:103270000F900F900F90DF91CF91089590912014AF
:10328000953A09F0C5C0811124C08BE791E0DEDFDB
:103290006093511570935215809353159093541564
:1032A00087E791E0D3DF6093001570930115809359
:1032B0000215909303158FE691E0C8DF6093F51433
:1032C0007093F6148093F7149093F81483E791E0C9
:1032D00025C0813069F58BE691E0B8DF6093511528
:1032E00070935215809353159093541587E691E08F
:1032F000ADDF6093001570930115809302159093D4
:1033000003158FE591E0A2DF6093F5147093F61436
:103310008093F7149093F81483E691E097DF60931D
:103320004D1570934E1580934F159093501594C082
:10333000823021F58BE591E089DF60935115709320
:103340005215809353159093541587E591E07EDFD5
:1033500060930015709301158093021590930315E7
:103360008FE491E073DF6093F5147093F61480930B
:10337000F7149093F81483E591E0D0CF833021F5D2
:103380008BE491E063DF6093511570935215809345
:1033900053159093541587E491E058DF609300151E
:1033A0007093011580930215909303158FE391E0BC
:1033B0004DDF6093F5147093F6148093F714909397
:1033C000F81483E491E0AACF8BE391E03FDF6093B0
:1033D000511570935215809353159093541587E3AC
:1033E00091E034DF6093001570930115809302150E
:1033F000909303158FE291E029DF6093F5147093A9
:10340000F6148093F7149093F81483E391E086CF39
:103410001092511510925215109253151092541586
:1034200080E090E0A0E8BFE3809300159093011541
:10343000A0930215B09303151092F5141092F61490
:103440001092F7141092F81410924D1510924E1518
:1034500010924F15109250158091191487FF18C0C3
:103460008091D91482FF14C01092511510925215F8
:10347000109253151092541580E090E0A0E8BFE33D
:103480008093001590930115A0930215B093031536
:10349000089590912014953A09F0A9C0811119C09E
:1034A0008BE291E0D3DE6093CD147093CE148093C1
:1034B000CF149093D01487E291E0C8DE6093C914D2
:1034C0007093CA148093CB149093CC1483E291E050
:1034D0001AC0813011F58FE191E0B8DE6093CD1410
:1034E0007093CE148093CF149093D0148BE191E01D
:1034F000ADDE6093C9147093CA148093CB1490937B
:10350000CC1487E191E0A2DE6093C5147093C614D9
:103510008093C7149093C81486C08230C9F483E1A5
:1035200091E094DE6093CD147093CE148093CF1409
:103530009093D0148FE091E089DE6093C91470936A
:10354000CA148093CB149093CC148BE091E0DBCF22
:103550008330C9F487E091E079DE6093CD147093F5
:10356000CE148093CF149093D01483E091E06EDE5C
:103570006093C9147093CA148093CB149093CC14A5
:103580008FEF90E0C0CF8430C9F48BEF90E05EDE27
:103590006093CD147093CE148093CF149093D01475
:1035A00087EF90E053DE6093C9147093CA14809340
:1035B000CB149093CC1483EF90E0A5CF8FEE90E0E6
:1035C00045DE6093CD147093CE148093CF14909306
:1035D000D0148BEE90E03ADE6093C9147093CA1455
:1035E0008093CB149093CC1487EE90E08CCF109204
:1035F000CD141092CE141092CF141092D01480E0FB
:1036000090E0A0E8BFE38093C9149093CA14A093FC
:10361000CB14B093CC141092C5141092C61410920F
:10362000C7141092C8148091191487FF18C0809194
:10363000D91483FF14C01092CD141092CE1410929E
:10364000CF141092D01480E090E0A0E8BFE3809304
:10365000C9149093CA14A093CB14B093CC140895BA
:103660008091141481FF55C08091D91482FF23C02A
:103670008091D214811103C087E791E049C0809105
:10368000D214813019F487E691E042C08091D214BF
:10369000823019F487E591E03BC08091D2148330E9
:1036A00019F487E491E034C08091D214843089F514
:1036B00087E391E02DC08091D91483FF2AC08091C7
:1036C0004915811103C087E291E022C0809149151C
:1036D000813019F48BE191E01BC080914915823053
:1036E00019F48FE091E014C080914915833019F4EA
:1036F00083E091E00DC080914915843019F487EF83
:1037000090E006C080914915853019F48BEE90E069
:103710009DCD60E070E080E89FEB089580911414E7
:1037200081FF55C08091D91482FF23C08091D214AB
:10373000811103C08BE791E049C08091D2148130A0
:1037400019F48BE691E042C08091D214823019F4D2
:103750008BE591E03BC08091D214833019F48BE467
:1037600091E034C08091D214843089F58BE391E0EC
:103770002DC08091D91483FF2AC0809149158111F1
:1037800003C08BE291E022C080914915813019F489
:103790008FE191E01BC080914915823019F483E1DB
:1037A00091E014C080914915833019F487E091E0CD
:1037B0000DC080914915843019F48BEF90E006C05C
:1037C00080914915853019F48FEE90E03FCD60E08F
:1037D00070E080E89FEB0895CF93DF9300D0CDB7E2
:1037E000DEB742E050E0BC01CE0101960E94754771
:1037F00089819A810F900F90DF91CF9108958091E8
:103800002014853A19F486E590E0E6CF81E194E052
:103810000895CF93DF9300D000D0CDB7DEB744E05A
:1038200050E0BC01CE0101960E94754769817A8102
:103830008B819C810F900F900F900F90DF91CF9113
:103840000895CF92DF92EF92FF920F931F93CF9341
:10385000DF93CDB7DEB76C01EDB6FEB650E08DB7A5
:103860009EB7841B950B0FB6F8949EBF0FBE8DBFFD
:103870000DB71EB70F5F1F4FC8010E947547B801F3
:10388000C6010E94F50B0FB6F894FEBE0FBEEDBE4A
:10389000DF91CF911F910F91FF90EF90DF90CF902C
:1038A00008954F925F926F927F928F929F92AF9204
:1038B000BF92CF92DF92EF92FF920F931F9380E11E
:1038C00090E00E9485478093201480912014853ACF
:1038D00009F0C5C245E16EEC70E08AE294E1B1DF27
:1038E00083E590E00E94854780931B1481E590E07A
:1038F0000E9485478093131483EE90E08ADF6093E3
:1039000088147093891480938A1490938B1485E59E
:1039100090E00E94854780931E1484E590E00E9409
:10392000854780931C148DE090E00E94854780932A
:10393000A9068FE490E050DF90937F1080937E1073
:103940008EE490E00E948547809302148DE490E01D
:103950000E94854780933A1289E891E00E9485474A
:103960008093D91488E891E00E9485478093FD14E4
:1039700087E891E00E9485478093FF1486E891E0F4
:103980000E9485478093331585E891E00E94854722
:103990008093F41481E891E01FDF90934C1580939D
:1039A0004B1583E891E018DF9093DB148093DA14D1
:1039B0008FE791E00E9485478093FE1480E891E0B4
:1039C0000E94854780931E158CE090E00E948547F9
:1039D0008093B80288E090E039DC6093A002709395
:1039E000A1028093A2029093A30284E090E02EDCD7
:1039F00060939B0A70939C0A80939D0A90939E0A01
:103A000081E090E00E9485478093B30280E090E0DF
:103A10000E9485478093A40282E090E0DDDE9093CF
:103A2000AB028093AA028FE090E00E9485478093CA
:103A30008C0E8EE090E00E94854780938D0E89E485
:103A400090E004DC6093ED137093EE138093EF131A
:103A50009093F01385E490E0F9DB60933512709356
:103A60003612809337129093381281E490E0EEDBA7
:103A7000609354127093551280935612909357127C
:103A80008DE390E0E3DB6093311270933212809308
:103A900033129093341289E390E0D8DB6093F113F2
:103AA0007093F2138093F3139093F41385E390E0F3
:103AB000CDDB60930B1470930C1480930D149093D2
:103AC0000E1481E390E0C2DB6093FE137093FF134A
:103AD00080930014909301148DE290E0B7DB609323
:103AE000801070938110809382109093831089E2EC
:103AF00090E0ACDB6093F6137093F7138093F813A8
:103B00009093F91385E290E0A1DB60930F1470931A
:103B10001014809311149093121481E290E096DBBC
:103B200060939110709392108093931090939410DF
:103B30008DE190E08BDB6093501270935112809373
:103B400052129093531289E190E080DB609344120B
:103B500070934512809346129093471285E190E04E
:103B600075DB6093FA137093FB138093FC139093AF
:103B7000FD1381E190E06ADB6093851070938610FD
:103B800080938710909388108AEC90E05FDB6093BD
:103B9000901470939114809392149093931486ECE4
:103BA00090E054DB60934E1470934F148093501444
:103BB0009093511482EC90E049DB6093571470931A
:103BC00058148093591490935A148EEB90E03EDB76
:103BD00060936314709364148093651490936614D7
:103BE0008AEB90E033DB60938014709381148093B0
:103BF00082149093831486EB90E028DB6093261464
:103C000070932714809328149093291482EB90E0EA
:103C10001DDB6093BD147093BE148093BF1490930A
:103C2000C0148EEA90E012DB60938C1470938D14B4
:103C300080938E1490938F148AEA90E007DB609350
:103C4000AC027093AD028093AE029093AF0286EA0D
:103C500090E0FCDA60939C0270939D0280939E0238
:103C600090939F0282EA90E0F1DA60937B14709364
:103C70007C1480937D1490937E148EE990E0E6DAB4
:103C80006093AE147093AF148093B0149093B114FA
:103C90008AE990E0DBDA60936B1470936C14809384
:103CA0006D1490936E1486E990E0D0DA60939914C5
:103CB00070939A1480939B1490939C1482E990E0E3
:103CC000C5DA6093A6147093A7148093A8149093F8
:103CD000A9146091A6147091A7148091A8149091D2
:103CE000A9142091A6143091A7144091A8145091C2
:103CF000A9140E94B5426093A6147093A7148093F0
:103D0000A8149093A91480E990E066DD9093B31411
:103D10008093B2148CE890E099DA609373147093F6
:103D20007414809375149093761488E890E08EDA7A
:103D30006093221470932314809324149093251479
:103D400084E890E083DA6093521470935314809364
:103D500054149093551480E890E078DA6093A2149C
:103D60007093A3148093A4149093A5148CE790E00F
:103D70006DDA60935B1470935C1480935D14909380
:103D80005E1482E590E00E948547809319148BE7CA
:103D900090E00E9485478093961487E790E056DA7A
:103DA0006093431470934414809345149093461485
:103DB00083E790E04BDA60939E1470939F14809396
:103DC000A0149093A11482E790E00E94854780930D
:103DD000B8148EE690E03ADA60933F147093401482
:103DE00080934114909342148AE690E02FDA609316
:103DF0006F1470937014809371149093721486E60C
:103E000090E024DA60935F147093601480936114DF
:103E10009093621482E690E019DA6093B91470937B
:103E2000BA148093BB149093BC148EE590E00EDA24
:103E300060937714709378148093791490937A1424
:103E40008AE590E003DA60936714709368148093B6
:103E5000691490936A1488E590E0BEDC4DC262E775
:103E600072E08AE294E10E94F50B10921B1410920A
:103E7000131480E094E2A4EFB0E080938814909350
:103E80008914A0938A14B0938B1486E080931E1437
:103E900088E780931C148AE08093A906E1E0F0E0B3
:103EA000F0937F10E0937E1081E080930214809362
:103EB0003A121092D91494E09093FD1495E09093E7
:103EC000FF149FEF909333159093F4142AEF30E092
:103ED00030934C1520934B153093DB142093DA1458
:103EE00024E630E030934C1520934B153093DB14CF
:103EF0002093DA141092B80246EA5FE069EC7FE39F
:103F00004093A0025093A1026093A2027093A30277
:103F10004EEA57E461E87FE340939B0A50939C0A82
:103F200060939D0A70939E0A8093B3028093A402CB
:103F300085E090E09093AB028093AA0210928C0EE1
:103F400010928D0E1092ED131092EE131092EF134B
:103F50001092F01380E090E0A0E8BFE38093351268
:103F600090933612A0933712B093381210925412D5
:103F700010925512109256121092571280933112CD
:103F800090933212A0933312B09334121092F11323
:103F90001092F2131092F3131092F4132FEAC22E20
:103FA00023E2D22E2EEEE22E2EE3F22EC0920B143E
:103FB000D0920C14E0920D14F0920E1400E010E573
:103FC00023E437E40093FE131093FF1320930014AF
:103FD0003093011447E157EB61ED78E34093801093
:103FE0005093811060938210709383100F2EF9E923
:103FF0008F2EF1EA9F2EF8E9AF2EF9E3BF2EF02DB8
:104000008092F6139092F713A092F813B092F913DE
:10401000C0920F14D0921014E0921114F092121466
:10402000009391101093921020939310309394105A
:104030004093501250935112609352127093531246
:104040004DE557E763E879E34093441250934512F6
:10405000609346127093471240E050E062E274E4CD
:104060004093FA135093FB136093FC137093FD136A
:104070008093851090938610A0938710B09388103A
:104080001092901410929114109292141092931412
:1040900040E050E060E272E440934E1450934F14BD
:1040A000609350147093511440E050E060EA70E463
:1040B00040935714509358146093591470935A14A2
:1040C00000E010E02CE032E40093631410936414D9
:1040D000209365143093661410928014109281140A
:1040E000109282141092831400E010E020EA32E46F
:1040F0000093261410932714209328143093291426
:104100004093BD145093BE146093BF147093C014B9
:1041100000E010E020E732E400938C1410938D143B
:1041200020938E1430938F1400E010E62AE636E4D4
:104130000093AC021093AD022093AE023093AF0215
:1041400000E018EC2FE237E400939C0210939D02EC
:1041500020939E0230939F02412C512C2AE7622E1D
:1041600024E4722E40927B1450927C1460927D1451
:1041700070927E1400E010E020E231E40093AE146F
:104180001093AF142093B0143093B1140F2EFAE9AA
:104190008F2EF9E99F2EA92CFFE3BF2EF02D8092E0
:1041A0006B1490926C14A0926D14B0926E140F2E3A
:1041B000FAE9CF2EF9E9DF2EF9E1EF2EFFE3FF2E2A
:1041C000F02DC0929914D0929A14E0929B14F09220
:1041D0009C140F2EC12CF4E2DF2EF4E7EF2EF9E44D
:1041E000FF2EF02DC092A614D092A714E092A8142E
:1041F000F092A914F093B314E093B21440927314A4
:1042000050927414609275147092761480932214F4
:1042100090932314A0932414B093251480925214E5
:1042200090925314A0925414B09255148AE999E9CB
:10423000A9E1BFE38093A2149093A314A093A414C4
:10424000B093A51400935B1410935C1420935D1439
:1042500030935E1410921914109296141092431415
:1042600010924414109245141092461410929E1409
:1042700010929F141092A0141092A1141092B814CE
:10428000C12CD12C80EFE82E81E4F82EC0923F148F
:10429000D0924014E0924114F092421480E090E0F9
:1042A000A8ECB1E480936F1490937014A0937114F0
:1042B000B0937214C0925F14D0926014E0926114B3
:1042C000F09262148093B9149093BA14A093BB1423
:1042D000B093BC140093771410937814209379143E
:1042E00030937A1440936714509368146093691460
:1042F00070936A1480E699E09093951480939414D7
:1043000060917E1070917F101091021480E090E017
:104310000E94BA416B017C01612F70E080E090E067
:104320000E94BA419B01AC01C701B6010E94B5428F
:104330009B01AC0160E070E080E89FE30E942141B6
:1043400060939510709396108093971090939810A7
:1043500060913A1270E080E090E00E94BA419B01C7
:10436000AC0160E070E080E89FE30E94214160932F
:104370004C1270934D1280934E1290934F12609195
:1043800088147091891480918A1490918B140E94E2
:10439000BC4120E034E244E759E40E9421419B0102
:1043A000AC0160E070E080E89FE30E94214120E0E2
:1043B00030E04DE353E40E94B5426093B90270933C
:1043C000BA028093BB029093BC02609188147091F2
:1043D000891480918A1490918B140E94BC4120E032
:1043E00034E244E759E40E9421419B01AC0160E0C2
:1043F00070E080E89FE30E94214120E030E040E04F
:1044000051E40E94B5426093A6027093A702809384
:10441000A8029093A9021F910F91FF90EF90DF9057
:10442000CF90BF90AF909F908F907F906F905F9054
:104430004F9008958F929F92AF92BF92DF92EF922A
:10444000FF920F931F93CF93DF93CDB7DEB7C5577E
:10445000D1090FB6F894DEBF0FBECDBF8C01F62E8A
:1044600081E068133DC0F801CE0101964C01DC01EA
:10447000D12C5C018191893069F0811105C08AE7F6
:1044800092E00E94090B43C68D93D39496E0D91213
:10449000F1CFF5CFF401ED0DF11D1082C4010E94A2
:1044A0005E44E82ED39490E0F801ED0DF11D2081DB
:1044B000222361F0F40121934F01D3949F5F913641
:1044C00099F78AE892E00E94090B21C6F501E90FED
:1044D000F11D10824AE0B80190E00E94804504C0BE
:1044E000C8010E945E44E82E6AE972E0C8010E9499
:1044F000060CE1100AC09801AE014F5F5F4F6F2DAF
:1045000080E190E00E94AE1802C6F1E0EF1221C0F7
:10451000FF1211C0BE016F5F7F4FCE018F599F4FB9
:104520000E94F50B44E150E06EEC70E0CE018F5933
:104530009F4F0E948D4744E16EEC70E0CE018F5991
:104540009F4F7FD9BE016F597F4FC8010E94060C53
:10455000DEC582E0E8120AC09801AE014F5F5F4FEE
:104560006F2D83E590E00E94AE18D1C593E0E9126B
:104570000AC09801AE014F5F5F4F6F2D81E590E05B
:104580000E94AE18C4C5E5E0EE1226C0F1E0FF12AD
:1045900013C0CE0101960E947B44A5966CAF7DAFFF
:1045A0008EAF9FAFA59744E050E063EE70E0CE0180
:1045B0008F599F4F0E948D4783EE90E02AD92AE0C1
:1045C000AE014F5F5F4F0E948A45BE016F5F7F4F14
:1045D000C8010E94060C9BC586E0E8120AC098013B
:1045E000AE014F5F5F4F6F2D86E590E00E94DC18B3
:1045F0008EC597E0E9120AC09801AE014F5F5F4F88
:104600006F2D85E590E00E94AE1881C5E8E0EE12BE
:104610000AC09801AE014F5F5F4F6F2D84E590E0B7
:104620000E94AE1874C5FAE0EF120AC09801AE01FC
:104630004F5F5F4F6F2D8FE490E00E94DC1867C5DD
:104640008BE0E8120AC09801AE014F5F5F4F6F2DFB
:104650008DE490E00E94AE185AC59CE0E9120AC0B1
:104660009801AE014F5F5F4F6F2D8EE490E00E9486
:10467000AE184DC5E4E1EE120AC09801AE014F5FDD
:104680005F4F6F2D89E891E00E94AE1840C5F5E1BB
:10469000EF120AC09801AE014F5F5F4F6F2D88E89F
:1046A00091E00E94AE1833C586E1E8120AC0980175
:1046B000AE014F5F5F4F6F2D87E891E00E94AE180B
:1046C00026C597E1E9120AC09801AE014F5F5F4F1E
:1046D0006F2D81E891E00E94DC1819C5E8E1EE1227
:1046E0000AC09801AE014F5F5F4F6F2D83E891E0E4
:1046F0000E94DC180CC5F5E5EF120AC09801AE0166
:104700004F5F5F4F6F2D8FE791E00E94AE18FFC49F
:1047100086E5E8120AC09801AE014F5F5F4F6F2D2A
:1047200080E891E00E94AE18F2C499E1E9120AC053
:104730009801AE014F5F5F4F6F2D8BE791E00E94B4
:104740007118E5C4EAE1EE120AC09801AE014F5FAC
:104750005F4F6F2D87E791E00E947118D8C4FBE18D
:10476000EF120AC09801AE014F5F5F4F6F2D83E7D4
:1047700091E00E947118CBC48CE1E8120AC0980144
:10478000AE014F5F5F4F6F2D8FE691E00E94711871
:10479000BEC49EE1E9120AC09801AE014F5F5F4FAF
:1047A0006F2D8BE691E00E947118B1C4EFE1EE121B
:1047B0000AC09801AE014F5F5F4F6F2D87E691E011
:1047C0000E947118A4C4F0E2EF120AC09801AE0171
:1047D0004F5F5F4F6F2D83E691E00E94711897C481
:1047E00081E2E8120AC09801AE014F5F5F4F6F2D62
:1047F0008FE591E00E9471188AC493E2E9120AC021
:104800009801AE014F5F5F4F6F2D8BE591E00E94E5
:1048100071187DC4E4E2EE120AC09801AE014F5F48
:104820005F4F6F2D87E591E00E94711870C4F5E22B
:10483000EF120AC09801AE014F5F5F4F6F2D83E505
:1048400091E00E94711863C486E2E8120AC09801E0
:10485000AE014F5F5F4F6F2D8FE491E00E947118A2
:1048600056C498E2E9120AC09801AE014F5F5F4F4B
:104870006F2D8BE491E00E94711849C4E9E2EE12B9
:104880000AC09801AE014F5F5F4F6F2D87E491E042
:104890000E9471183CC4FAE2EF120AC09801AE01FE
:1048A0004F5F5F4F6F2D83E491E00E9471182FC41A
:1048B0008BE2E8120AC09801AE014F5F5F4F6F2D87
:1048C0008FE391E00E94711822C49DE2E9120AC0B0
:1048D0009801AE014F5F5F4F6F2D8BE391E00E9417
:1048E000711815C4EEE2EE120AC09801AE014F5FD6
:1048F0005F4F6F2D87E391E00E94711808C4FFE2BB
:10490000EF120AC09801AE014F5F5F4F6F2D83E336
:1049100091E00E947118FBC380E3E8120AC098017D
:10492000AE014F5F5F4F6F2D8FE291E00E947118D3
:10493000EEC397E3E9120AC09801AE014F5F5F4FE3
:104940006F2D8BE291E00E947118E1C3E8E3EE1253
:104950000AC09801AE014F5F5F4F6F2D87E291E073
:104960000E947118D4C3F9E3EF120AC09801AE0196
:104970004F5F5F4F6F2D83E291E00E947118C7C3B4
:104980008CE3E8120AC09801AE014F5F5F4F6F2DB4
:104990008FE191E00E947118BAC39DE3E9120AC049
:1049A0009801AE014F5F5F4F6F2D8BE191E00E9448
:1049B0007118ADC3EEE3EE120AC09801AE014F5F6D
:1049C0005F4F6F2D87E191E00E947118A0C3F1E461
:1049D000EF120AC09801AE014F5F5F4F6F2D83E168
:1049E00091E00E94711893C382E4E8120AC0980112
:1049F000AE014F5F5F4F6F2D8FE091E00E94711805
:104A000086C393E4E9120AC09801AE014F5F5F4F7D
:104A10006F2D8BE091E00E94711879C3E6E4EE12ED
:104A20000AC09801AE014F5F5F4F6F2D87E091E0A4
:104A30000E9471186CC3F7E4EF120AC09801AE012E
:104A40004F5F5F4F6F2D83E091E00E9471185FC34D
:104A500088E4E8120AC09801AE014F5F5F4F6F2DE6
:104A60008FEF90E00E94711852C39BE4E9120AC0D4
:104A70009801AE014F5F5F4F6F2D8BEF90E00E946A
:104A8000711845C3ECE4EE120AC09801AE014F5F05
:104A90005F4F6F2D87EF90E00E94711838C3FDE4DF
:104AA000EF120AC09801AE014F5F5F4F6F2D83EF89
:104AB00090E00E9471182BC380E5E8120AC09801AB
:104AC000AE014F5F5F4F6F2D8FEE90E00E94711827
:104AD0001EC391E5E9120AC09801AE014F5F5F4F16
:104AE0006F2D8BEE90E00E94711811C3E2E5EE127B
:104AF0000AC09801AE014F5F5F4F6F2D87EE90E0C7
:104B00000E94711804C3F3E5EF120AC09801AE01C8
:104B10004F5F5F4F6F2D86E891E00E94AE18F7C29D
:104B200084E5E8120AC09801AE014F5F5F4F6F2D18
:104B300085E891E00E94AE18EAC29AE5E9120AC03F
:104B40009801AE014F5F5F4F6F2D89E490E00E94A6
:104B50007118DDC2EBE5EE120AC09801AE014F5F9D
:104B60005F4F6F2D85E490E00E947118D0C2FFE581
:104B7000EF120AC09801AE014F5F5F4F6F2D81E4C5
:104B800090E00E947118C3C280E6E8120AC0980142
:104B9000AE014F5F5F4F6F2D8DE390E00E94711863
:104BA000B6C291E6E9120AC09801AE014F5F5F4FAD
:104BB0006F2D89E390E00E947118A9C2E4E6EE121D
:104BC0000AC09801AE014F5F5F4F6F2D85E390E003
:104BD0000E9471189CC2F5E6EF120AC09801AE015E
:104BE0004F5F5F4F6F2D81E390E00E9471188FC27D
:104BF00086E6E8120AC09801AE014F5F5F4F6F2D45
:104C00008DE290E00E94711882C297E6E9120AC014
:104C10009801AE014F5F5F4F6F2D89E290E00E94D7
:104C2000711875C2E9E6EE120AC09801AE014F5F35
:104C30005F4F6F2D85E290E00E94711868C2FAE61E
:104C4000EF120AC09801AE014F5F5F4F6F2D81E2F6
:104C500090E00E9471185BC28BE6E8120AC09801CE
:104C6000AE014F5F5F4F6F2D8DE190E00E94711894
:104C70004EC29CE6E9120AC09801AE014F5F5F4F39
:104C80006F2D89E190E00E94711841C2EEE6EE12AC
:104C90000AC09801AE014F5F5F4F6F2D85E190E034
:104CA0000E94711834C2FFE6EF120AC09801AE01EB
:104CB0004F5F5F4F6F2D81E190E00E94711827C216
:104CC00083E7E8120AC09801AE014F5F5F4F6F2D76
:104CD0008FE090E00E94AE181AC294E7E9120AC071
:104CE0009801AE014F5F5F4F6F2D8EE090E00E9404
:104CF000AE180DC2EDE7EE120AC09801AE014F5F8B
:104D00005F4F6F2D8AEC90E00E94711800C2FEE7A1
:104D1000EF120AC09801AE014F5F5F4F6F2D86EC16
:104D200090E00E947118F3C18FE7E8120AC0980161
:104D3000AE014F5F5F4F6F2D82EC90E00E947118C3
:104D4000E6C190E8E9120AC09801AE014F5F5F4FDB
:104D50006F2D8EEB90E00E947118D9C1E2E8EE123F
:104D60000AC09801AE014F5F5F4F6F2D8AEB90E054
:104D70000E947118CCC1F3E8EF120AC09801AE018D
:104D80004F5F5F4F6F2D86EB90E00E947118BFC19F
:104D900084E8E8120AC09801AE014F5F5F4F6F2DA3
:104DA00082EB90E00E947118B2C195E8E9120AC046
:104DB0009801AE014F5F5F4F6F2D8EEA90E00E9429
:104DC0007118A5C1E7E8EE120AC09801AE014F5F65
:104DD0005F4F6F2D8AEA90E00E94711898C1F8E841
:104DE000EF120AC09801AE014F5F5F4F6F2D86EA48
:104DF00090E00E9471188BC18CE8E8120AC09801FB
:104E0000AE014F5F5F4F6F2D8DE090E00E94AE18B6
:104E10007EC19DE8E9120AC09801AE014F5F5F4F65
:104E20006F2D8CE090E00E94AE1871C1EEE8EE129A
:104E30000AC09801AE014F5F5F4F6F2D88E090E090
:104E40000E94711864C1FFE8EF120AC09801AE0118
:104E50004F5F5F4F6F2D84E090E00E94711857C143
:104E600080E9E8120AC09801AE014F5F5F4F6F2DD5
:104E700082E090E00E94DC184AC191E9E9120AC080
:104E80009801AE014F5F5F4F6F2D81E090E00E946F
:104E9000AE183DC1E2E9EE120AC09801AE014F5FC3
:104EA0005F4F6F2D80E090E00E94AE1830C1F6E9B0
:104EB000EF120AC09801AE014F5F5F4F6F2D82EA7B
:104EC00090E00E94711823C187E9E8120AC0980196
:104ED000AE014F5F5F4F6F2D8EE990E00E94711819
:104EE00016C198E9E9120AC09801AE014F5F5F4F01
:104EF0006F2D8AE990E00E94711809C1E9E9EE126C
:104F00000AC09801AE014F5F5F4F6F2D86E990E0B8
:104F10000E947118FCC0FAE9EF120AC09801AE01B4
:104F20004F5F5F4F6F2D82E990E00E947118EFC0D4
:104F30008BE9E8120AC09801AE014F5F5F4F6F2DF9
:104F400080E990E00E94DC18E2C090EAE9120AC011
:104F50009801AE014F5F5F4F6F2D8CE890E00E948B
:104F60007118D5C0E1EAEE120AC09801AE014F5F98
:104F70005F4F6F2D88E890E00E947118C8C0F2EA78
:104F8000EF120AC09801AE014F5F5F4F6F2D84E8AA
:104F900090E00E947118BBC083EAE8120AC0980131
:104FA000AE014F5F5F4F6F2D80E890E00E94711857
:104FB000AEC094EAE9120AC09801AE014F5F5F4F9C
:104FC0006F2D8CE790E00E947118A1C0E5EAEE1207
:104FD0000AC09801AE014F5F5F4F6F2D82E590E0F0
:104FE0000E94AE1894C0F6EAEF120AC09801AE0112
:104FF0004F5F5F4F6F2D8BE790E00E94AE1887C028
:1050000087EAE8120AC09801AE014F5F5F4F6F2D2B
:1050100087E790E00E9471187AC098EAE9120AC006
:105020009801AE014F5F5F4F6F2D83E790E00E94C4
:1050300071186DC0EFEAEE120AC09801AE014F5F21
:105040005F4F6F2D82E790E00E94AE1860C0F0EBDA
:10505000EF120AC09801AE014F5F5F4F6F2D8EE6D1
:1050600090E00E94711853C081EBE8120AC09801C9
:10507000AE014F5F5F4F6F2D8AE690E00E9471187E
:1050800046C092EBE9120AC09801AE014F5F5F4F34
:105090006F2D86E690E00E94711839C0E3EBEE12A6
:1050A0000AC09801AE014F5F5F4F6F2D82E690E01E
:1050B0000E9471182CC0F4EBEF120AC09801AE01E7
:1050C0004F5F5F4F6F2D8EE590E00E9471181FC0FB
:1050D00085EBE8120AC09801AE014F5F5F4F6F2D5C
:1050E0008AE590E00E94711812C096EBE9120AC09E
:1050F0009801AE014F5F5F4F6F2D88E590E00E94F1
:10510000DC1805C069E171E0C8010E94060CCB58AB
:10511000DF4F0FB6F894DEBF0FBECDBFDF91CF914A
:105120001F910F91FF90EF90DF90BF90AF909F90F5
:105130008F90089585E08A95F1F700002A9A80E122
:105140008A95F1F72A981EBC0DB407FEFDCF9EB5D7
:105150001EBC0DB407FEFDCF8EB50895CF92DF9231
:10516000EF92FF929C01C12CD12C760160E070E09F
:10517000CB0121153105E1F02150310945E04A9577
:10518000F1F700002A9A40E14A95F1F72A981EBCEF
:105190000DB407FEFDCF4EB5D42E1EBC0DB407FED8
:1051A000FDCF4EB5C42E6C0D7D1D8E1D9F1DE1CF14
:1051B000FF90EF90DF90CF900895CF92DF92EF9223
:1051C000FF929C01C12CD12C760110928410109278
:1051D000F51360E070E0CB01F1E02115310551F1EC
:1051E0002150310945E04A95F1F700002A9A40E143
:1051F0004A95F1F72A981EBC0DB407FEFDCFEEB517
:10520000DE2E1EBC0DB407FEFDCFEEB5CE2EAD2DAD
:10521000D11005C0E11109C0F093F51306C0AF3FEE
:1052200021F4EF3F11F4F09384106C0D7D1D8E1D61
:105230009F1DD3CFFF90EF90DF90CF9008954F92B6
:105240005F926F927F928F929F92AF92BF92CF9216
:10525000DF92EF92FF9280917E1090917F10ADDFF0
:10526000139A1298119830913F122091021432171C
:1052700010F010923F122091D11420FF15C0209100
:10528000D1142E7F2093D114209102142223C1F037
:10529000215034E0239FF0011124E356FF4E608338
:1052A000718382839383F2CFE0913F1224E0E29FE7
:1052B000F0011124E356FF4E608371838283938350
:1052C0002091021460E070E0CB01222381F0215094
:1052D00034E0239FF0011124E356FF4EC080D180BB
:1052E000E280F3806C0D7D1D8E1D9F1DEECF4090E2
:1052F0009510509096106090971070909810809034
:10530000511590905215A0905315B0905415C0901F
:105310000015D0900115E0900215F09003150E9441
:10532000BA41A30192010E94B542A50194010E94D5
:10533000B940A70196010E94B5426093891070930D
:105340008A1080938B1090938C108091F513882392
:1053500049F0809114148460809314148091D914BE
:1053600080621AC080918410882371F08091141497
:105370008460809314148091D91480618093D9142F
:105380008091D9148F7D0DC0809114148B7F8093F0
:1053900014148091D9148F7D8093D9148091D914DD
:1053A0008F7E8093D91487EF90E00197F1F700C0CA
:1053B000000080917E1090917F10FFDE1398129A6A
:1053C00011982091D11421FF15C02091D1142D7F67
:1053D0002093D114209102142223C1F0215034E0F3
:1053E000239FF0011124E85AFD4E6083718382836C
:1053F0009383F2CFE0913F1224E0E29FF001112469
:10540000E85AFD4E608371838283938380913F12BB
:105410008F5F80933F122091021460E070E0CB0117
:10542000222381F0215034E0239FF0011124E85A17
:10543000FD4EC080D180E280F3806C0D7D1D8E1DFD
:105440009F1DEECF40909510509096106090971051
:10545000709098108090CD149090CE14A090CF149E
:10546000B090D014C090C914D090CA14E090CB145E
:10547000F090CC140E94BA41A30192010E94B5425F
:10548000A50194010E94B940A70196010E94B5426E
:105490006093401270934112809342129093431292
:1054A0006091891070918A1080918B1090918C106E
:1054B0002091F5143091F6144091F7145091F8149E
:1054C000C0904012D0904112E0904212F0904312EE
:1054D0000E94B542A70196010E94B94060933B1219
:1054E00070933C1280933D1290933E128091F5137D
:1054F000882349F08091141488608093141480915B
:10550000D91480681AC080918410882371F080912A
:1055100014148860809314148091D914806480934B
:10552000D9148091D9148F770DC080911414877F7E
:10553000809314148091D9148F778093D91480911B
:10554000D9148F7B8093D91485ED8A95F1F70000EB
:1055500080913A1290E002DE139A129A1198C0904C
:105560004C12D0904D12E0904E12F0904F120E94CB
:10557000BA41A70196010E94B54260938D107093C5
:105580008E1080938F10909390108FE591E001978B
:10559000F1F700C0000080913A1290E0DFDD139A2D
:1055A0001298119A40904C1250904D1260904E12E9
:1055B00070904F128090351290903612A090371252
:1055C000B0903812C090ED13D090EE13E090EF132E
:1055D000F090F0130E94BA41A30192010E94B542DB
:1055E000A50194010E94B542A70196010E94B9400D
:1055F000609303147093041480930514909306141D
:1056000083E291E00197F1F700C0000080913A1227
:1056100090E0A4DD13981298119AC0904C12D0908B
:105620004D12E0904E12F0904F120E94BA41A70125
:1056300096010E94B54220910B1430910C144091B8
:105640000D1450910E140E94B5426B017C019B0118
:10565000AC0160E070E080E897E40E94B8409B01F4
:10566000AC01C701B6010E9421412091FE13309187
:10567000FF134091001450910114C0908010D090FD
:105680008110E0908210F09083100E94B542A70133
:1056900096010E94B5420E9475422091F613309106
:1056A000F7134091F8135091F9130E94B5422EE17F
:1056B0003FEC4BE55BE30E94B9409B01AC0160E02D
:1056C00070E080E89FE30E94214123E333E948E84A
:1056D00053E40E94B8406093991070939A1080939D
:1056E0009B1090939C1080913A1290E037DD1398B4
:1056F00012981198C0904C12D0904D12E0904E121A
:10570000F0904F120E94BA41A70196010E94B54243
:1057100020910F14309110144091111450911214D3
:105720000E94B5426B017C019B01AC0160E070E01E
:1057300080E897E40E94B8409B01AC01C701B60124
:105740000E9421412091911030919210409193102C
:1057500050919410C0905012D0905112E09052127B
:10576000F09053120E94B542A70196010E94B542E3
:105770000E94754220914412309145124091461288
:10578000509147120E94B5422EE13FEC4BE55BE39E
:105790000E94B9409B01AC0160E070E080E89FE3AB
:1057A0000E94214123E333E948E853E40E94B840D2
:1057B00060930714709308148093091490930A144B
:1057C000FF90EF90DF90CF90BF90AF909F908F9021
:1057D0007F906F905F904F9008954F925F926F927D
:1057E0007F928F929F92AF92BF92CF92DF92EF9271
:1057F000FF921398129811988FE891E00197F1F7B2
:1058000000C000002091021480917E1090917F10C2
:10581000AC01249FC001259F900D1124CEDC409047
:1058200095105090961060909710709098108090FE
:10583000511590905215A0905315B0905415C090EA
:105840000015D0900115E0900215F09003150E940C
:10585000BA41A30192010E94B542A50194010E94A0
:10586000B940A70196010E94B542609389107093D8
:105870008A1080938B1090938C108091F51388235D
:1058800021F08091D914806210C080918410882307
:1058900049F08091D91480618093D9148091D914F2
:1058A0008F7D08C08091D9148F7D8093D914809109
:1058B000D9148F7E8093D914139A129A119AFF905B
:1058C000EF90DF90CF90BF90AF909F908F907F90A0
:1058D0006F905F904F9008954F925F926F927F927A
:1058E0008F929F92AF92BF92CF92DF92EF92FF92F0
:1058F000139A129811988FE891E00197F1F700C080
:1059000000002091021480917E1090917F10AC01D4
:10591000249FC001259F900D11244FDC40909510CD
:105920005090961060909710709098108090CD14C1
:105930009090CE14A090CF14B090D014C090C91401
:10594000D090CA14E090CB14F090CC140E94BA41CD
:10595000A30192010E94B542A50194010E94B940A1
:10596000A70196010E94B5426093401270934112C4
:1059700080934212909343128091F513882321F073
:105980008091D914806810C080918410882349F0D8
:105990008091D91480648093D9148091D9148F7721
:1059A00008C08091D9148F778093D9148091D9142D
:1059B0008F7B8093D914139A129A119AFF90EF90CB
:1059C000DF90CF90BF90AF909F908F907F906F901F
:1059D0005F904F9008952CB528602CBD8F5F9F4736
:1059E0002C981EBC0DB407FEFDCF9EBD0DB407FE66
:1059F000FDCF8EBD0DB407FEFDCF2C9A8CB5877FF1
:105A00008CBD08954F925F926F927F928F929F927A
:105A1000AF92BF92CF92DF92EF92FF924B015C0167
:105A200020910015309101154091021550910315F8
:105A3000409085105090861060908710709088106C
:105A4000C090FA13D090FB13E090FC13F090FD137C
:105A50000E942141A30192010E94B542A701960133
:105A60000E94B9406B017C0120E03AEF4FE757E418
:105A70000E946C4287FF17C02091FA133091FB13EC
:105A80004091FC135091FD13C701B6010E941D41C6
:105A900087FF10C0C090FA13D090FB13E090FC1366
:105AA000F090FD1307C0C12C8AEFD82E8FE7E82EA7
:105AB00087E4F82E8092841490928514A092861424
:105AC000B0928714C701B6010E948E41CB01FF90AE
:105AD000EF90DF90CF90BF90AF909F908F907F908E
