S01400004D5050545F5043425F4D43552E7372656357
S113000024C1000041C100003FC100003DC1000007
S11300103BC1000039C1000037C1000035C10000F8
S113002033C1000031C100002FC100002DC1000008
S11300302BC100000C94643027C1000025C10000CE
S113004023C1000021C100001FC100001DC1000028
S11300500C94C82F19C100000C942C3015C1000059
S113006013C1000011C100000FC100000DC1000048
S11300700BC1000009C1000007C1000005C1000058
S113008003C1000001C10000FFC00000080000001F
S1130090BE922449123EABAAAA2ABECDCCCC4C3E79
S11300A000000080BEABAAAAAA3E00000000BF0068
S11300B00000803F0000000000084178D3BB438764
S11300C0D1133D190E3CC3BD4282AD2B3E68EC8278
S11300D076BED98FE1A93E4C80EFFFBE01C4FF7FFD
S11300E03F000000000005A84CCDB2D44EB938360C
S11300F0A9020C50B9918688083CA6AAAA2ABE0077
S11301000000803F696E6600494E46006E616E00D5
S11301104E414E0000407A10F35A00A0724E180966
S11301200010A5D4E80000E87648170000E40B545A
S1130130020000CA9A3B000000E1F5050000809629
S11301409800000040420F000000A086010000005B
S1130150102700000000E803000000006400000015
S113016000000A00000000000100000000002C76DE
S1130170D888DC674F0823DFC1DFAE59E1B1B796F9
S1130180E5E3E453C63AE651997696E8E6C2842656
S1130190EB898C9B62ED407C6FFCEFBC9C9F40F232
S11301A0BAA56FA5F490055A2AF75C936B6CF967AE
S11301B06DC11BFCE0E40D47FEF520E6B500D0ED73
S11301C0902E0300943577050080841E08000020DB
S11301D04E0A000000C80C333333330F986E128379
S11301E01141EF8D2114893BE65516CFFEE6DB184D
S11301F0D1844B381BF77C1D901DA4BBE424203212
S113020084725E228100C9F124ECA1E53D274E41B0
S11302104E494E495459494E46CDCCCC3D0AD7237C
S11302203C17B7D13877CC2B329595E6241FB14FC4
S11302300A000020410000C84200401C4620BCBE09
S11302404CCA1B0E5AAEC59D740011241FBECFEFBD
S1130250D0E4DEBFCDBF12E0A0E0B1E0E4E0FCE812
S113026000E00BBF02C007900D92AC39B107D9F77B
S113027025E1ACE9B2E001C01D92A035B207E1F777
S11302800E945F2E0C940046BBCECF93DF938091E7
S1130290D81480FD0AC09091B0028091CF148917C0
S11302A020F48091B0020E94D93B80912A1590914C
S11302B02B15A0912C15B0912D158093A814909313
S11302C0A914A093AA14B093AB146091A8147091CC
S11302D0A9148091AA149091AB140E94B32B2FEF10
S11302E080E792E0215080409040E1F700C0000098
S11302F0C6E0C15009F10E949E2A8091D81480FD65
S11303001BC0D091CF1410921915109218150E9489
S1130310FC3D8091CF14D81305C08091CF148093F5
S1130320B0020AC02FEF80E792E021508040904055
S1130330E1F700C00000DDCF609187107091881054
S11303408091891090918A10DF91CF910895CF9375
S1130350DF938091D81481FD0AC09091980A80910E
S11303604315891720F48091980A0E94E03C10926A
S1130370A8141092A9141092AA141092AB146091AC
S1130380A8147091A9148091AA149091AB140E949E
S1130390B32B2FEF80E792E0215080409040E1F7AB
S11303A000C0000000990BC00E94A2392FEF80E723
S11303B092E0215080409040E1F700C00000C7E087
S11303C0C15009F10E941D2B8091D81481FD1BC0DE
S11303D0D09143151092D5141092D4140E943A3E31
S11303E080914315D81305C0809143158093980AD2
S11303F00AC02FEF80E792E0215080409040E1F75F
S113040000C00000DDCFDF91CF9108952F923F927D
S11304104F925F926F927F928F929F92AF92BF9210
S1130420CF92DF92EF92FF920F931F93CF93DF93BC
S113043000D01F92CDB7DEB72DB73EB73B832A83DA
S11304408091A706EDB7FEB722E0829FE019F1097B
S113045011240FB6F894FEBF0FBEEDBF8DB79EB743
S113046001967C01D090CF14C09043154090811424
S11304705090821460908314709084146091B2023E
S11304807091B3028091B4029091B5022091B702A9
S11304903091B8024091B9025091BA020E94603F73
S11304A0181684F08091B7029091B802A091B90215
S11304B0B091BA028093B2029093B302A093B402B3
S11304C0B093B5026091B2027091B3028091B4020C
S11304D09091B5022091B7023091B8024091B902CF
S11304E05091BA028090A6029090A702A090A80210
S11304F0B090A9020E94FB3EA50194010E94643FB2
S11305000E945B410E94D13F6983372E8091D814A9
S113051080FD2DC010921915109218156091411488
S11305207091421480914314909144142091A80630
S11305303091A9064091AA065091AB060E94AF40A3
S113054018164CF460914114709142148091431434
S11305509091441408C06091A8067091A9068091F6
S1130560AA069091AB060E94C4380E94D93B8091A0
S1130570D81481FD31C0609141147091421480916E
S11305804314909144142091A8063091A9064091F7
S1130590AA065091AB060E94AF4018164CF4609125
S11305A0A8067091A9068091AA069091AB0608C08E
S11305B060914114709142148091431490914414B9
S11305C00E94B32B9FEFE0E7F2E09150E040F0404F
S11305D0E1F700C00000BBDE609141147091421449
S11305E080914314909144140E94B32B1398129851
S11305F011982FEF30E782E0215030408040E1F73E
S113060000C000002090A7066091A8067091A9067A
S11306108091AA069091AB060E94B32B57018701E3
S1130620222071F00E947427F801819391938F0125
S11306302A948981932D009799F301970000FBCFA9
S11306402090A7062220D1F02A94022D10E0F80170
S1130650EE0FFF1FEE0DFF1D6081718180E090E0C1
S11306600E94FD3F000F111F000F111FF801E356F8
S1130670F54F6083718382839383E4CF6091411447
S11306807091421480914314909144140E94B32BAE
S1130690139A12981198FFEF20E732E0F1502040AE
S11306A03040E1F700C000001091A7066091A80651
S11306B07091A9068091AA069091AB060E94B32B73
S11306C0112371F00E947427F501819391935F01C6
S11306D011508981932D009799F301970000FBCF66
S11306E0B090A706BB20D1F0BA940B2D10E0F8010E
S11306F0EE0FFF1FEE0DFF1D6081718180E090E021
S11307000E94FD3F000F111F000F111FF801E45557
S1130710F94F6083718382839383E4CF80911714AC
S11307208B7F809317148091161482608093161423
S11307306091811470918214809183149091841437
S11307400E94B32B80914315C81639F01092D5142A
S11307501092D4148C2D0E94E03C8091CF14D816B2
S113076039F010921915109218158D2D0E94D93B4D
S1130770C301B2010E94B32BFFEF20E732E0F15036
S113078020403040E1F700C000008A819B810FB611
S1130790F8949EBF0FBE8DBF0F900F900F90DF9106
S11307A0CF911F910F91FF90EF90DF90CF90BF906A
S11307B0AF909F908F907F906F905F904F903F90FD
S11307C02F9008954F925F926F927F928F929F9293
S11307D0AF92BF92CF92DF92EF92FF92CF93DF93CB
S11307E0CDB7DEB72C970FB6F894DEBF0FBECDBFE2
S11307F069877A878B879C8729013A018091B102A6
S11308008983812C912C5401C12CD12C7601A9818E
S1130810AA2309F44AC0139812981198AFE8B1E0DA
S11308201197F1F700C000008091A40290E00E94AB
S1130830B727C60ED71EE81EF91E8091F31388232E
S113084021F08091A502806207C0809182108823E4
S113085029F08091A50280618093A502139A1298D1
S113086011988FE891E00197F1F700C000008091A2
S1130870A40290E00E94B727860E971EA81EB91EF8
S11308808091F313882321F08091A502806807C02A
S113089080918210882329F08091A502806480933E
S11308A0A502998191509983B2CF8091B60281FFBC
S11308B023C01398129811988FE891E00197F1F7EB
S11308C000C000008091A40290E00E94B727C60EE9
S11308D0D71EE81EF91E8091F313882321F080911E
S11308E0D814806207C080918210882329F08091F7
S11308F0D81480618093D81480914A1590914B1537
S1130900A0914C15B0914D1589839A83AB83BC8318
S11309108091FC149091FD14A091FE14B091FF14E9
S11309208D839E83AF83B887C701B6010E94FD3FC4
S113093029853A854B855C850E94F84029813A8156
S11309404B815C810E94FC3E2D813E814F81588504
S11309500E94F840609387107093881080938910E8
S113096090938A10C090CB14D090CC14E090CD1406
S1130970F090CE148091C7149091C814A091C9141A
S1130980B091CA1489839A83AB83BC83C501B40133
S11309900E94FD3FA30192010E94F840A701960125
S11309A00E94FC3E29813A814B815C810E94F8407F
S11309B060933E1270933F128093401290934112C1
S11309C060918710709188108091891090918A109D
S11309D02091F2143091F3144091F4145091F514D1
S11309E0C0903E12D0903F12E0904012F09041121D
S11309F00E94F840A70196010E94FC3E60933912C0
S1130A0070933A1280933B1290933C122C960FB63B
S1130A10F894DEBF0FBECDBFDF91CF91FF90EF9072
S1130A20DF90CF90BF90AF909F908F907F906F900A
S1130A305F904F9008955F926F927F928F929F92F2
S1130A40AF92BF92CF92DF92EF92FF920F931F93D8
S1130A50CF93DF931091A70600E0B12CA12C912C29
S1130A60C12CD12C7601112381F1115084E0189FFF
S1130A70E0011124FE01E356F54F6081718182810A
S1130A809381FE01E455F94F2081318142815381E4
S1130A900E94F840562E672E782E892E262F372F47
S1130AA0482F592F602F7B2D8A2D992D0E94603F4E
S1130AB087FFD9CFC554DD4FC880D980EA80FB8039
S1130AC0052DB62CA72C982CCECFC701B601DF91EB
S1130AD0CF911F910F91FF90EF90DF90CF90BF9037
S1130AE0AF909F908F907F906F905F900895CF927A
S1130AF0DF92EF92FF92139A1298119A8FE891E085
S1130B000197F1F700C0000084E190E00E9488277B
S1130B10139A129A119A0E94FD3F2DEC3CEC4CE47E
S1130B205DE30E94F8402091091430910A14409129
S1130B300B1450910C140E94F8406B017C019B0132
S1130B40AC0160E070E080E897E40E94FB3E9B010A
S1130B50AC01C701B6010E94643F2091FC1330919F
S1130B60FD134091FE135091FF13C0907E10D0905E
S1130B707F10E0908010F09081100E94F840A7014F
S1130B8096010E94F8400E94B8402091F4133091DD
S1130B90F5134091F6135091F7130E94F8402EE19B
S1130BA03FEC4BE55BE30E94FC3E9B01AC0160E043
S1130BB070E080E89FE30E94643F23E333E948E860
S1130BC053E40E94FB3E60939710709398108093B7
S1130BD0991090939A108091B61487FD48C0809123
S1130BE0B61480FD44C06091051470910614809180
S1130BF007149091081420915C1430915D14409175
S1130C005E1450915F140E94AF401816A4F06091D6
S1130C109710709198108091991090919A1020914A
S1130C203D1430913E1440913F14509140140E9461
S1130C30AF401816E4F41698179A8091B6148160A0
S1130C408093B6148091B61482608093B614809118
S1130C5091149091921490934614809345148FE1CB
S1130C609EE40197F1F700C00000169A179AFF90CE
S1130C70EF90DF90CF900C94C532CF92DF92EF9239
S1130C80FF9213981298119A8FE891E00197F1F767
S1130C9000C0000084E190E00E948827139A129A11
S1130CA0119A0E94FD3F2DEC3CEC4CE45DE30E9464
S1130CB0F84020910D1430910E1440910F1450916E
S1130CC010140E94F8406B017C019B01AC0160E0B0
S1130CD070E080E897E40E94FB3E9B01AC01C701F1
S1130CE0B6010E94643F20918F1030919010409182
S1130CF0911050919210C0904E12D0904F12E090EB
S1130D005012F09051120E94F840A70196010E94DF
S1130D10F8400E94B8402091421230914312409111
S1130D204412509145120E94F8402EE13FEC4BE5ED
S1130D305BE30E94FC3E9B01AC0160E070E080E854
S1130D409FE30E94643F23E333E948E853E40E94AD
S1130D50FB3E6093051470930614809307149093DC
S1130D6008148091B61487FD48C08091B61480FDA4
S1130D7044C06091051470910614809107149091F9
S1130D80081420915C1430915D1440915E145091CC
S1130D905F140E94AF401816A4F0609197107091F0
S1130DA098108091991090919A1020913D1430914F
S1130DB03E1440913F14509140140E94AF401816C5
S1130DC0E4F41698179A8091B61481608093B6144F
S1130DD08091B61482608093B6148091911490919E
S1130DE0921490934614809345148FE19EE40197E6
S1130DF0F1F700C00000169A179AFF90EF90DF9069
S1130E00CF900C94C5328F929F92AF92BF92CF92A3
S1130E10DF92EF92FF92139A129A11988FE891E061
S1130E200197F1F700C0000084E190E00E94882758
S1130E30139A129A119A8090331290903412A090BF
S1130E403512B0903612C090EB13D090EC13E090B2
S1130E50ED13F090EE130E94FD3F2DEC3CEC4CE4BE
S1130E605DE30E94F840A50194010E94F840A701A7
S1130E7096010E94FC3E60930114709302148093C7
S1130E8003149093041460910114709102148091DE
S1130E900314909104142091AC023091AD0240915E
S1130EA0AE025091AF020E94603F87FD14C0609172
S1130EB001147091021480910314909104142091F0
S1130EC09C0230919D0240919E0250919F020E948B
S1130ED0AF4018162CF48091A50284608093A5027B
S1130EE0FF90EF90DF90CF90BF90AF909F908F9046
S1130EF008952F923F924F925F926F927F928F92BA
S1130F009F92AF92BF92CF92DF92EF92FF920F9394
S1130F101F93CF93DF93CDB7DEB72E970FB6F89418
S1130F20DEBF0FBECDBF1092A502209143152A83C8
S1130F303091CF143B838091811490918214A091BD
S1130F408314B091841488879987AA87BB8780917A
S1130F50B60281FF4FC09091A40299836091B102BF
S1130F6070E080E090E00E94FD3F20E030E040E847
S1130F705FE30E94FC3E6B017C01A9816A2F70E053
S1130F8080E090E00E94FD3F9B01AC01C701B601E7
S1130F900E94F8409B01AC0160E070E080E89FE3B0
S1130FA00E94643F062F372E8983192F6091A40273
S1130FB0B090B10270E080E090E00E94FD3F6B01D0
S1130FC07C016B2D70E080E090E00E94FD3F9B016E
S1130FD0AC01C701B6010E94F8409B01AC0160E07E
S1130FE070E080E89FE30E94643F6C837D838E837E
S1130FF09F8329C06091A402B091B102B98370E0CB
S113100080E090E00E94FD3F6B017C01E9816E2F3E
S113101070E080E090E00E94FD3F9B01AC01C701BD
S1131020B6010E94F8409B01AC0160E070E080E8EA
S11310309FE30E94643F062F372E8983192F6C8308
S11310407D838E839F8321D96B017C0180D980911C
S1131050B60280FFB6C08090A0029090A102A0903A
S1131060A202B090A3026091A70670E061507109DA
S1131070072E000C880B990B0E94FF3F9B01AC01CB
S1131080C501B4010E94643F2B013C012091990ADF
S113109030919A0A40919B0A50919C0AC701B6016B
S11310A00E94F8406B017C016091A70670E06150DA
S11310B07109072E000C880B990B0E94FF3FA301B6
S11310C092010E94F8400E947B414B015C016091B7
S11310D0A0027091A1028091A2029091A30226EA3B
S11310E03FE049EC5FE30E94603FA50194011816BC
S11310F044F460E070E080E090E40E94FB3E9B01D9
S1131100AC01C701B6010E94643F6B017C01212C34
S11311108091A706281608F043C0222D30E03E87B0
S11311202D87B901330F880B990B0E94FF3FA30150
S113113092010E94F8404B015C0126EA3FE049EC31
S11311405FE30E94603FAD85BE85AA0FBB1FAA0F57
S1131150BB1FBE87AD8718164CF0C501B4010E94B1
S11311607B419B01AC01C701B6010EC0C501B401AE
S11311700E947B419B01AC0160E070E080E090E460
S11311800E94FB3EA70196010E94F840ED85FE8572
S1131190E554FD4F60837183828393832394B8CF96
S11311A08091B60282FF4DC0E091A706B4E0EB9FA8
S11311B0F0011124E954FD4F608171818281938192
S11311C048C02091990A30919A0A40919B0A509103
S11311D09C0AB090A706C701B6010E94F8406B01B3
S11311E07C016B2D70E061507109072E000C880B97
S11311F0990B0E94FF3F9B01AC01C701B6010E94FD
S1131200643F4B015C01D12C8091A706D81640F6AF
S1131210ED2CF12C6D2D70E080E090E00E94FD3FFC
S1131220A50194010E94F840F701EE0FFF1FEE0F95
S1131230FF1FE554FD4F6083718382839383D394AE
S1131240E3CF6091BB027091BC028091BD0290918A
S1131250BE020E94B32BEFEFF0E722E0E150F04032
S11312602040E1F700C00000C12C8091A706C816F9
S113127008F073C08091B602EC2CF12C82FF0CC0F4
S1131280E091A706F0E0EE19FF09EE0FFF1FEE0F45
S1131290FF1FE954FD4F07C0F701EE0FFF1FEE0FCC
S11312A0FF1FE554FD4F60817181828193810E940B
S11312B0B32BA8958091AA029091AB02BB24BA9457
S11312C0B80E1C86EFEFBE1609F4B1C0A8953C8594
S11312D0313081F40CDC882339F08091A5028260DE
S11312E08093A50281E001C080E0ABE4B6E01197F1
S11312F0F1F712C0BC85B230A9F4BFDC882339F001
S11313008091A50282608093A50281E001C080E003
S1131310EBE4F6E03197F1F700C00000882309F40C
S1131320B4C01BC0FC85F33051F46DDD8BE39AE04F
S11313300197F1F700C0000094E09C870CC0ABE972
S1131340BFE01197F1F700C00000BC85BF5FBC8708
S1131350BA3008F01C86BA94B5CF009904C08091C5
S1131360A502816003C08091A5028E7F8093A502AF
S11313708091531480688093531480911614826072
S113138080931614809117148D7F80931714888589
S11313909985AA85BB858093A8149093A914A093DA
S11313A0AA14B093AB14809143159A81981739F01D
S11313B01092D5141092D414892F0E94E03C80918D
S11313C0CF14AB81A81739F0109219151092181583
S11313D08A2F0E94D93B6091A8147091A91480911E
S11313E0AA149091AB140E94B32BBFEFE0E7F2E094
S11313F0B150E040F040E1F700C000002E960FB677
S1131400F894DEBF0FBECDBFDF91CF911F910F9136
S1131410FF90EF90DF90CF90BF90AF909F908F9010
S11314207F906F905F904F903F902F9008952C8104
S11314303D814E815F81602F732D8981912FC2D9A7
S113144040918710509188106091891070918A1092
S1131450C701880F991F880F991FFC01E356F54FA8
S113146040835183628373834091391250913A12BD
S113147060913B1270913C12FC01E455F94F40839A
S1131480518362837383C394F0CE2C852F5F2C87A2
S113149062CFCF93C82F8091EA13C11102C08F7B12
S11314A003C0C13039F480648093EA138091EA1355
S11314B08F770AC0C23011F48F7B01C0806480939F
S11314C0EA138091EA1380688093EA134091EA1347
S11314D06091371282E00E94A62D8FE891E0019777
S11314E0F1F700C00000C093890ECF910895CF9307
S11314F0C82F8091EA13C11102C08F7E03C0C1308E
S113150039F480618093EA138091EA138F7D0AC0D5
S1131510C23011F48F7E01C080618093EA13809100
S1131520EA1380628093EA134091EA1360913712C0
S113153082E00E94A62D8FE891E00197F1F700C0A8
S11315400000C0938C0ECF9108959091890E8091E4
S11315508A0E981719F080918A0E9BDF90918C0E59
S113156080918B0E981719F080918B0EC0CF08953F
S1131570BC0180918E0E8111FCCF90E0292F30E0C8
S1131580FB01E20FF31F4081442339F08081F9010C
S1131590EA57F04F80839F5FF1CF8091151486FD49
S11315A006C0F901EA57F04F8AE080839F5FE92F74
S11315B0F0E0EA57F04F108290938E0E81E0809312
S11315C0850F8091C00085FFFCCF5A9A85E08A95EB
S11315D0F1F700008091C10080648093C100809184
S11315E0860F8093C6000895AC0190917A109923D8
S11315F079F09150292F30E0F901E057F14F8081C3
S1131600FA01E20FF31F2081281789F380E008957F
S113161081E00895AC0190917A10691778F49150A3
S1131620292F30E0F901E057F14F8081FA01E20FF0
S1131630F31F2081281789F380E0089581E008953D
S11316409C0110927A1080917A10F901E80FF11D33
S11316508081E0917A10F0E0882379F080917A100B
S1131660D901A80FB11D8C91E057F14F808390915F
S11316707A109F5F90937A10E6CFE057F14F108273
S11316800895AC01E0917A10F0E0E057F14F89E061
S1131690808390917A109F5F90937A1090E0DA01A2
S11316A0A90FB11D8C91E0917A10F0E0882359F0D4
S11316B08C91E057F14F80839F5F20917A102F5FC8
S11316C020937A10ECCFE057F14F10820895AC01CB
S11316D060937A1090E0FA01E90FF11D2081E09106
S11316E07A10F0E0E057F14F222341F0208320915B
S11316F07A102F5F20937A109F5FEDCF10820895A8
S1131700E0917A10F0E0E057F14F8FE3808380910D
S11317107A108F5F80937A10E0917A10F0E0E057AE
S1131720F14F10820895FB012E2F261B421741F022
S1131730DC013D91CD012081321304C03196F4CFF8
S113174081E0089580E00895AC0190E0E92FF0E095
S1131750DB01AE0FBF1F2C91E40FF51F222319F0FC
S113176020839F5FF3CF10820895CF93DF93DC0132
S113177090E0FD01E90FF11D8081882311F09F5F46
S1131780F8CF492F842F891BEB01C80FD11D888105
S1131790242F30E0FD01E20FF31F882321F088811C
S11317A080834F5FEFCF1082DF91CF9108950F9325
S11317B0FC01CB01BA0103E025E0AF010E9419420C
S11317C00F910895CF93DF93CDB7DEB7C656D109F5
S11317D00FB6F894DEBF0FBECDBF8091151487FFFE
S11317E017C080918E0E811113C08091900E8111CB
S11317F007C0809115148F7B8093151410928D0E61
S113180080E99EE0B5DE809115148F7780931514DE
S11318108091151487FD3BC090918D0E8091A70691
S1131820981760F5E0918D0E84E0E89FF001112493
S1131830E356F54F4081518162817381CE01019657
S1131840B6DF10927A10CE0101961BDFE0918D0E67
S113185084E0E89FF0011124E455F94F408151815F
S113186062817381CE010196A2DFCE01019609DF68
S113187080918D0E8F5F80938D0E04C010928D0E1B
S11318801092900E80911514806880931514CA5993
S1131890DF4F0FB6F894DEBF0FBECDBFDF91CF91FF
S11318A008958F929F92AF92BF92DF92EF92FF9230
S11318B00F931F93CF93DF93EC018B0180E091E0B2
S11318C0BFDECE0191DE882309F469C08091121431
S11318D0909116144AE0B8010E94C343C801D1DEB6
S11318E040918710509188106091891070918A10EE
S11318F0C8015DDFC801C5DE4091391250913A122A
S113190060913B1270913C12C80151DFC801B9DEED
S113191040918B1050918C1060918D1070918E10AD
S1131920C80145DFC801ADDE409101145091021495
S11319306091031470910414C80139DFC801A1DE59
S113194040919710509198106091991070919A104D
S1131950C8012DDFC80195DE40910514509106148D
S11319606091071470910814C80121DFC80189DE51
S11319708091191480FF0CC0409146125091471277
S11319806091481270914912C80111DFC80179DED3
S113199080E99EE0EDDD809116148E7FFAC186E029
S11319A091E04EDECE0120DE882349F180917A1049
S11319B0FE01E80FF11D8081811112C0F8018081C0
S11319C0813321F480911714816007C0803311F0B2
S11319D00C947415809117148E7F809317140AC089
S11319E080917A10C80FD11D88818F3311F00C9427
S11319F0741586DE8091171480FF39C075C38FE09B
S1131A0091E01EDEF0907A10CE01EEDD811133C03C
S1131A108CE391E015DEF0907A10CE01E5DD8111C2
S1131A2074C083E292E00CDEF0907A10CE01DCDD2B
S1131A30882309F423C36F2D82E691E048DE6F2DDD
S1131A40CE01E8DD882309F477C180917A10C80FAC
S1131A50D11D888181110C9474150E94C53288238C
S1131A6009F415C1809117148D7F809317148DE0AC
S1131A7091E00C946F156F2D81E191E028DE6F2DBC
S1131A80CE01C8DD882349F0809112149091161478
S1131A904AE0B8010E94C34379CF6F2D86E191E0FB
S1131AA016DE6F2DCE01B6DD882329F08BE091E0A0
S1131AB0C7DD0C9471156F2D8BE191E008DE6F2D5D
S1131AC0CE01A8DD882351F080E291E0DADD8BE2DB
S1131AD091E0D7DD88E294E10C946F156F2D88ECCA
S1131AE091E0F5DD6F2DCE0195DD882309F490CFCB
S1131AF08BE091E0C6DD80E99EE03ADD80918E0EB8
S1131B008111FCCFF8940C9400006F2D82E491E0D5
S1131B10DEDD6F2DCE017EDD8823E1F080917A1029
S1131B20FE01E80FF11D8081811108C0C8010E94E7
S1131B30BE42609393148091931495C780917A1058
S1131B40C80FD11D88818F3309F0CEC7D9DD8091AC
S1131B507C1489C76F2D87E491E0B9DD6F2DCE0128
S1131B6059DD882331F180917A10FE01E80FF11DCF
S1131B70808181110CC0C8010E949E42609341146F
S1131B8070934214809343149093441409C0809139
S1131B907A10C80FD11D88818F3309F0A5C7B0DD35
S1131BA04091411450914214609143147091441433
S1131BB02EC06F2D8FE491E08ADD6F2DCE012ADDDA
S1131BC0882341F180917A10FE01E80FF11D808194
S1131BD081110CC0C8010E949E4260939C147093B2
S1131BE09D1480939E1490939F1409C080917A1041
S1131BF0C80FD11D88818F3309F076C781DD4091EC
S1131C009C1450919D1460919E1470919F14C8016E
S1131C10CEDD64C76F2D87E591E059DD6F2DCE01D0
S1131C20F9DC882309F4FDCE80917A10FE01E80FD7
S1131C30F11D808181111DC0C8010E94BE42613620
S1131C40FAEE7F07810591051CF080E69AEE07C045
S1131C5016161706180619063CF081E090E09093DA
S1131C60B1148093B0140EC07093B1146093B01487
S1131C7009C080917A10C80FD11D88818F3309F073
S1131C8033C73EDD6091B0147091B114FEC08091F1
S1131C90121485FDE7CE8091121480FFE3CE80916B
S1131CA01714826080931714E090A706C091AA02CB
S1131CB0D091AB02F090A706D090B1026091A4023B
S1131CC070E080E090E00E94FF3F28E539E344EBB8
S1131CD05CE30E94F8402EEA37E441E65EE30E94AA
S1131CE0FC3E4B015C01FD9CB0011124072E000C4D
S1131CF0880B990B0E94FF3F9B01AC01C501B40105
S1131D000E94F8404B015C01EC9EB001ED9E700D09
S1131D10112480E090E00E94FD3F9B01AC01C501CD
S1131D20B4010E94FC3E20E030E048E453E40E9409
S1131D30FC3E0E94CC3FABC06F2D87E691E0C7DC30
S1131D406F2DCE0167DC882391F180917A10C80F42
S1131D50D11D88818F3309F0C7C680911514806422
S1131D608093151410928D0ECBDC8091A5024AE06D
S1131D70B80190E00E94C343C80183DC80E99EE07F
S1131D80F7DB809115148F778093151480911614C6
S1131D908D7F80931614DF91CF911F910F91FF9047
S1131DA0EF90DF90BF90AF909F908F9008956F2D2C
S1131DB08CE691E08CDC6F2DCE012CDC882351F174
S1131DC080917A10FE01E80FF11D8081811116C007
S1131DD0C8010E94BE426B3F71058105910514F054
S1131DE08AEF06C0643071058105910524F483E00F
S1131DF08093A7060CC06093A70609C080917A104F
S1131E00C80FD11D88818F3309F06EC679DC8091AB
S1131E10A70629C66F2D8CE591E059DC6F2DCE0104
S1131E20F9DB8823C9F180917A10FE01E80FF11DD6
S1131E30808181111DC0C8010E94BE4261362AEE14
S1131E407207810591051CF080E69AEE07C016160C
S1131E501706180619063CF081E090E09093AB0257
S1131E608093AA020EC07093AB026093AA0209C0C9
S1131E7080917A10C80FD11D88818F3309F034C640
S1131E803FDC6091AA027091AB0280E090E02AE00E
S1131E90A8010E94CD4322C66F2D83E791E017DC91
S1131EA06F2DCE01B7DB882359F180917A10FE01A2
S1131EB0E80FF11D8081811117C0C8010E94BE4244
S1131EC06F3F71058105910519F014F08FEF06C07D
S1131ED0161617061806190624F081E08093A4024A
S1131EE00CC06093A40209C080917A10C80FD11D60
S1131EF088818F3309F0F8C503DC8091A402B3C54F
S1131F006F2D8AE791E0E3DB6F2DCE0183DB88231D
S1131F1059F180917A10FE01E80FF11D8081811141
S1131F2017C0C8010E94BE426F3F7105810591052B
S1131F3019F014F08FEF06C01616170618061906C6
S1131F4024F081E08093B1020CC06093B10209C017
S1131F5080917A10C80FD11D88818F3309F0C4C5D0
S1131F60CFDB8091B1027FC56F2D82E491E0AFDBBE
S1131F706F2DCE014FDB882319F180917A10FE0179
S1131F80E80FF11D808181110FC0C8010E94BE427B
S1131F906F3F71058105910520F089E191E071DBC6
S1131FA00CC06093B60209C080917A10C80FD11D8D
S1131FB088818F3309F098C5A3DB8091B60253C59D
S1131FC06F2D83E891E083DB6F2DCE0123DB882323
S1131FD031F180917A10FE01E80FF11D80818111A9
S1131FE00CC0C8010E949E426093A0027093A1029B
S1131FF08093A2029093A30209C080917A10C80F23
S1132000D11D88818F3309F06FC57ADB4091A0021E
S11320105091A1026091A2027091A302F8CD6F2D9C
S11320208DE891E054DB6F2DCE01F4DA882331F191
S113203080917A10FE01E80FF11D808181110CC09E
S1132040C8010E949E426093990A70939A0A8093F1
S11320509B0A90939C0A09C080917A10C80FD11DE5
S113206088818F3309F040C54BDB4091990A509128
S11320709A0A60919B0A70919C0AC9CD86E991E005
S1132080DFDAF0907A10CE01AFDA882309F48DC03C
S11320906F2D82E691E01BDB6F2DCE01BBDA882326
S11320A031F180917A10C80FD11D888181111CC52E
S11320B00E94C532811108C08091121485FD04C0AC
S11320C08091121480FD08C0809117148B7F809337
S11320D017148DE091E007C08091171484608093F9
S11320E017148BE091E0CDDA8BE091E0F8C46F2D0A
S11320F08DE991E0ECDA6F2DCE018CDA882331F191
S113210080917A10FE01E80FF11D808181110CC0CD
S1132110C8010E949E426093A8067093A90680930A
S1132120AA069093AB0609C080917A10C80FD11DFE
S113213088818F3309F0D8C4E3DA4091A80650911E
S1132140A9066091AA067091AB0661CD6F2D8CE54E
S113215091E0BDDA6F2DCE015DDA882331F18091F3
S11321607A10FE01E80FF11D808181110CC0C801B5
S11321700E949E426093B2027093B3028093B402B1
S11321809093B50209C080917A10C80FD11D88813F
S11321908F3309F0A9C4B4DA4091B2025091B3026A
S11321A06091B4027091B50232CD85EA91E048DACB
S11321B0F0907A10CE0118DA882309F428C26F2D22
S11321C08CEA91E084DA6F2DCE0124DA8823E9F0D9
S11321D080917A10C80FD11D88818F3309F084C48F
S11321E040914615509147156091481570914915D5
S11321F0C801DDDAC80145DA4091C3145091C41412
S11322006091C5147091C61402CD6F2D83EB91E0DB
S11322105EDA6F2DCE01FED98823C1F180917A1048
S1132220FE01E80FF11D8081811120C0F801808139
S113223090E0C0970A9708F057C4C8010E94BE42B4
S1132240653071058105910548F08091D8148E7F21
S11322508093D8148FEF8093FA1440C02091D8143F
S113226021602093D8146093FA140DC080917A10E1
S1132270C80FD11D88818F3309F036C441DA8091AB
S1132280FA148F3F59F18091FA14EDC36F2D8FEB3F
S113229091E01DDA6F2DCE01BDD98823D1F1809153
S11322A07A10FE01E80FF11D8081811122C0F8012E
S11322B0808190E0C0970A9708F016C4C8010E9474
S11322C0BE42663071058105910558F08091D8149D
S11322D08D7F8093D8148FEF8093FB148AEB91E069
S11322E0FEC32091D81422602093D8146093FB1469
S11322F00DC080917A10C80FD11D88818F3309F0E9
S1132300F3C3FED98091FB148F3F41F38091FB14FA
S1132310AAC36F2D86EC91E0DAD96F2DCE017AD95C
S1132320882351F080917A10C80FD11D88818111C2
S1132330DBC30E94A239D8CE6F2D8CEC91E0C7D9B3
S11323406F2DCE0167D9882359F180917A10FE014F
S1132350E80FF11D8081811117C0F801808190E0A0
S1132360C0970A9708F0C0C3C8010E94BE426F3FDD
S113237071058105910529F020F08FEF80932E15CA
S11323800CC060932E1509C080917A10C80FD11D1E
S113239088818F3309F0A8C3B3D980912E1563C304
S11323A06F2D83ED91E093D96F2DCE0133D988231E
S11323B059F180917A10FE01E80FF11D808181119D
S11323C017C0F801808190E0C0970A9708F08CC389
S11323D0C8010E94BE426F3F71058105910529F035
S11323E020F08FEF8093F1140CC06093F11409C0B6
S11323F080917A10C80FD11D88818F3309F074C37E
S11324007FD98091F1142FC36F2D8AED91E05FD9AC
S11324106F2DCE01FFD8882309F4F9C0F0907A100B
S11324206F2D82E491E053D96F2DCE01F3D8882328
S113243009F471C080917A10FE01E80FF11D8081CA
S113244081114EC08091171480688093171444E062
S113245065EB71E0C80167D9813071F48091D814BB
S113246084608093D8148091D814877F8093D81483
S11324708FEF8093CF143DC044E061EC71E0C8015C
S113248052D9813071F48091D81488608093D81423
S11324908091D8148B7F8093D8148FEF8093431549
S11324A028C0809117148F77809317148091D814C3
S11324B082FF04C08FEF8093CF1407C08091D8149B
S11324C083FF03C08FEF809343158091D8148B7FD3
S11324D08093D8148091D814877F8093D81409C02E
S11324E080917A10C80FD11D88818F3309F0FCC206
S11324F007D98091171487FFBACA8091D81482FF34
S113250003C085EB91E0EBC28091D81483FF27C010
S113251081EC91E0E4C26F2D82EE91E0D8D86F2D6A
S1132520CE0178D88823B1F180917A10FE01E80FAA
S1132530F11D8081811120C0C8010E949E4220911A
S1132540171427FD0FC08091171487FF3FC0809197
S1132550D81482FD1BC08091D81483FD17C08FED61
S113256091E0BDC22091D81422FD04C02091D8145A
S113257023FFE9CF3AD3E7CF80917A10C80FD11D5A
S113258088818F3309F0B0C2BBD8DDCF7DD7AB01D2
S1132590BC013DCB6F2D80EF91E099D86F2DCE011A
S11325A039D88823A1F180917A10FE01E80FF11D3A
S11325B08081811118C0C8010E949E422091171485
S11325C027FD07C08091171487FD17C088EE91E09E
S11325D086C22091D81422FD04C02091D81423FF70
S11325E0F1CFCBD3EFCF80917A10C80FD11D888162
S11325F08F3309F079C284D8E5CF8091D81482FD55
S113260004C08091D81483FFAACF9CD7C0CF87EF92
S113261091E016D8F0907A10CE010E94F40A882333
S113262009F46BC06F2D82E491E051D86F2DCE0177
S11326300E940A0B882309F460C080917A10FE017D
S1132640E80FF11D808181112BC0C8010E94BE4298
S1132650611571058105910559F48091B61480685E
S11326608093B6148091B6148D7F8093B61434C0D1
S1132670613071058105910559F48091B614806823
S11326808093B6148091B61482608093B61419C0F6
S11326908091B6148F778093B6148BE092E01FC2BA
S11326A080917A10C80FD11D88818F3309F01CC224
S11326B027D88091B61480FF07C08091B61487FF95
S11326C003C084E092E00BC28091B61480FD07C081
S11326D08091B61487FF03C08CEF91E000C2809113
S11326E0B61480FF07C08091B61487FD03C080E153
S11326F092E0F5C188E192E0F2C181E292E00E94A9
S1132700200BF0907A10CE010E94F40A882309F479
S113271084C06F2D87E292E00E94670B6F2DCE017B
S11327200E940A0B882349F040918114509182142D
S113273060918314709184146ACA6F2D8DE292E0C3
S11327400E94670B6F2DCE010E940A0B882369F14A
S113275080917A10FE01E80FF11D8081811118C06B
S1132760F801808190E0C0970A9708F0BDC1C801C4
S11327700E94BE42643071058105910520F083E01A
S113278080938A0E02C060938A0E80918A0E6BC178
S113279080917A10C80FD11D88818F3309F0A4C1AC
S11327A00E94800B8091890E5EC16F2D84E392E0BC
S11327B00E94670B6F2DCE010E940A0B882369F1DA
S11327C080917A10FE01E80FF11D8081811118C0FB
S11327D0F801808190E0C0970A9708F085C1C8018C
S11327E00E94BE42643071058105910520F083E0AA
S11327F080938B0E02C060938B0E80918B0E33C13D
S113280080917A10C80FD11D88818F3309F06CC173
S11328100E94800B80918C0E26C18AE392E00E9474
S1132820200BF0907A10CE010E94F40A882309F458
S113283020C16F2D83E791E00E94670B6F2DCE01BD
S11328400E940A0B882309F45CC080917A10FE016F
S1132850E80FF11D8081811143C0F801808190E06F
S1132860C0970A9708F040C1C8010E94BE426F3F5A
S113287071058105910521F01CF08FEF90E007C0F0
S113288016161706180619063CF081E090E090939E
S11328907D1080937C1004C070937D1060937C1035
S11328A02091001480917C1090917D10289FB0019C
S11328B0299F700D112480E090E00E94FD3F9B0150
S11328C0AC0160E070E080E89FE30E94643F6093A5
S11328D093107093941080939510909396100AC05F
S11328E080917A10C80FD11D88818F3309F0FCC004
S11328F00E94800B80917C1090917D104AE0B80179
S1132900B5C06F2D8FE392E00E94670B6F2DCE014F
S11329100E940A0B882309F44AC080917A10FE01B0
S1132920E80FF11D8081811135C0F801808190E0AC
S1132930C0970A9708F0D8C0C8010E94BE426F3FF2
S113294071058105910519F014F08FEF06C0161674
S113295017061806190624F081E08093381202C085
S1132960609338126091381270E080E090E00E9429
S1132970FD3F9B01AC0160E070E080E89FE30E94B2
S1132980643F60934A1270934B1280934C1290935D
S11329904D120AC080917A10C80FD11D88818F33DF
S11329A009F0A2C00E94800B809138125CC06F2D88
S11329B089E492E00E94670B6F2DCE010E940A0BFE
S11329C0882309F456C080917A10FE01E80FF11DA6
S11329D0808181113CC0F801808190E0C0970A9702
S11329E008F082C0C8010E94BE42663671058105A6
S11329F0910514F084E606C0161617061806190683
S1132A0024F081E08093001402C0609300142091AC
S1132A10001480917C1090917D10289FB001299F13
S1132A20700D112480E090E00E94FD3F9B01AC01F9
S1132A3060E070E080E89FE30E94643F609393103D
S1132A407093941080939510909396100AC080917F
S1132A507A10C80FD11D88818F3309F045C00E94B8
S1132A60800B809100144AE0B80190E00E94C343B7
S1132A7035C083E592E00E94200BF0907A10CE01DD
S1132A800E94F40A882381F16F2D8AE592E00E9466
S1132A90670B6F2DCE010E940A0B882349F08091A9
S1132AA07A10C80FD11D888181111EC061E013C046
S1132AB06F2D80E091E00E94670B6F2DCE010E9484
S1132AC00A0B882389F080917A10C80FD11D888160
S1132AD081110AC060E0C8010E940E21C8010E9451
S1132AE0410B80E99EE002C089E191E0DF91CF9142
S1132AF01F910F91FF90EF90DF90BF90AF909F9048
S1132B008F900C94B80ACF93DF93CDB7DEB7CC5730
S1132B10D1090FB6F894DEBF0FBECDBF809101106E
S1132B20833209F056C09091001080918F0E981353
S1132B3050C0DE01A959BF4F22E030E0AD01922F11
S1132B408EEF820FF901E050F04F60816930B1F0EF
S1132B506081611105C0FA01E80FF11D108232C0D5
S1132B608091840F9817A8F580818D932F5F3F4F34
S1132B702731310521F780E692E01CC0FA01E80F05
S1132B80F11D10822091840F2817E0F09F5FDE0171
S1132B90119620E0BD01E92FF0E0E050F04F808174
S1132BA0882359F080818D939F5F2F5F253699F795
S1132BB089E692E00E94B80A0CC0FB01E20FF11D05
S1132BC0108201C01982BE016F5F7F4FCA010E944B
S1132BD0510CC458DF4F0FB6F894DEBF0FBECDBF03
S1132BE0DF91CF9108950C949E42CF93DF93CDB79C
S1132BF0DEB7AC970FB6F894DEBF0FBECDBF209101
S1132C00121421FFB1C0DC01CB012091D81422FFA2
S1132C104CC02091CF1421110BC089A79AA7ABA750
S1132C20BCA744E050E067E771E0CE0189969AC002
S1132C302091CF14213059F48DA39EA3AFA3B8A73C
S1132C4044E050E067E671E0CE0185968BC02091A8
S1132C50CF14223059F489A39AA3ABA3BCA344E0B4
S1132C6050E067E571E0CE0181967CC02091CF14DD
S1132C70233059F48D8F9E8FAF8FB8A344E050E07A
S1132C8067E471E0CE014D966DC02091CF142430DD
S1132C9009F06AC0898F9A8FAB8FBC8F44E050E0F3
S1132CA067E371E0CE0149965DC02091D81423FFFB
S1132CB05BC02091431521110BC08D8B9E8BAF8B74
S1132CC0B88F44E050E067E271E0CE0145964AC017
S1132CD020914315213059F4898B9A8BAB8BBC8B93
S1132CE044E050E06BE171E0CE0141963BC020919D
S1132CF04315223059F48D879E87AF87B88B44E003
S1132D0050E06FE071E0CE010D962CC02091431588
S1132D10233059F489879A87AB87BC8744E050E015
S1132D2063E071E0CE0109961DC020914315243063
S1132D3059F48D839E83AF83B88744E050E067EFF6
S1132D4070E0CE0105960EC020914315253061F444
S1132D5089839A83AB83BC8344E050E06BEE70E0DC
S1132D60CE0101960E94D045AC960FB6F894DEBF12
S1132D700FBECDBFDF91CF910895CF93DF93CDB731
S1132D80DEB7AC970FB6F894DEBF0FBECDBF20916F
S1132D90121421FFB1C0DC01CB012091D81422FF11
S1132DA04CC02091CF1421110BC089A79AA7ABA7BF
S1132DB0BCA744E050E06BE771E0CE0189969AC06D
S1132DC02091CF14213059F48DA39EA3AFA3B8A7AB
S1132DD044E050E06BE671E0CE0185968BC0209113
S1132DE0CF14223059F489A39AA3ABA3BCA344E023
S1132DF050E06BE571E0CE0181967CC02091CF1448
S1132E00233059F48D8F9E8FAF8FB8A344E050E0E8
S1132E106BE471E0CE014D966DC02091CF14243047
S1132E2009F06AC0898F9A8FAB8FBC8F44E050E061
S1132E306BE371E0CE0149965DC02091D81423FF65
S1132E405BC02091431521110BC08D8B9E8BAF8BE2
S1132E50B88F44E050E06BE271E0CE0145964AC081
S1132E6020914315213059F4898B9A8BAB8BBC8B01
S1132E7044E050E06FE171E0CE0141963BC0209107
S1132E804315223059F48D879E87AF87B88B44E071
S1132E9050E063E171E0CE010D962CC02091431502
S1132EA0233059F489879A87AB87BC8744E050E084
S1132EB067E071E0CE0109961DC0209143152430CE
S1132EC059F48D839E83AF83B88744E050E06BEF61
S1132ED070E0CE0105960EC020914315253061F4B3
S1132EE089839A83AB83BC8344E050E06FEE70E047
S1132EF0CE0101960E94D045AC960FB6F894DEBF81
S1132F000FBECDBFDF91CF910895CF92DF92EF92A4
S1132F10FF920F931F93CF93DF9300D000D0CDB7D0
S1132F20DEB77C018A016901613069F4CA015BDEA4
S1132F3069837A838B839C8344E050E0B701CE019C
S1132F4001960E94D04544E050E0B701CE010196BD
S1132F500E94B84549815A816B817C81C8010E94D5
S1132F60D70BB801C6010E94B50B0F900F900F90BC
S1132F700F90DF91CF911F910F91FF90EF90DF9011
S1132F80CF900895EF92FF920F931F93CF93DF9307
S1132F908C01EA017901613089F4CA010E94BE42C0
S1132FA06F3F71058105910509F024F497FF03C073
S1132FB060E001C06FEFC8010E94D945C8010E94BA
S1132FC0C8454AE0BE0190E00E94C343BE01C70168
S1132FD0DF91CF911F910F91FF90EF900C94B50B5F
S1132FE0CF92DF92EF92FF920F931F93CF93DF93D1
S1132FF000D0CDB7DEB76C018A0179016130E1F40C
S1133000CA010E94BE426115710521E08207910543
S11330102CF08FEF9FEF9A83898307C097FF03C03B
S11330201A82198202C07A83698342E050E0B601B1
S1133030CE0101960E94D04542E050E0B601CE0197
S113304001960E94B84569817A8180E090E02AE087
S1133050A8010E94CD43B801C7010E94B50B0F908F
S11330600F90DF91CF911F910F91FF90EF90DF9020
S1133070CF900895CF93DF9300D000D0CDB7DEB7C3
S113308044E050E0BC01CE0101960E94B84569813C
S11330907A818B819C810F900F900F900F90DF911C
S11330A0CF91089590911E14953A09F0C5C08111ED
S11330B024C08BE791E0DEDF60934A1570934B15D3
S11330C080934C1590934D1587E791E0D3DF60937F
S11330D0FC147093FD148093FE149093FF148FE6F8
S11330E091E0C8DF6093F2147093F3148093F414A6
S11330F09093F51483E791E025C0813069F58BE660
S113310091E0B8DF60934A1570934B1580934C158A
S113311090934D1587E691E0ADDF6093FC147093B6
S1133120FD148093FE149093FF148FE591E0A2DFC9
S11331306093F2147093F3148093F4149093F51441
S113314083E691E097DF609346157093471580936B
S113315048159093491594C0823021F58BE591E090
S113316089DF60934A1570934B1580934C159093A7
S11331704D1587E591E07EDF6093FC147093FD1498
S11331808093FE149093FF148FE491E073DF6093B7
S1133190F2147093F3148093F4149093F51483E56C
S11331A091E0D0CF833021F58BE491E063DF60932D
S11331B04A1570934B1580934C1590934D1587E4E5
S11331C091E058DF6093FC147093FD148093FE1417
S11331D09093FF148FE391E04DDF6093F2147093AA
S11331E0F3148093F4149093F51483E491E0AACF3C
S11331F08BE391E03FDF60934A1570934B15809306
S11332004C1590934D1587E391E034DF6093FC14E3
S11332107093FD148093FE149093FF148FE291E059
S113322029DF6093F2147093F3148093F414909351
S1133230F51483E391E086CF10924A1510924B1552
S113324010924C1510924D1580E090E0A0E8BFE379
S11332508093FC149093FD14A093FE14B093FF1478
S11332601092F2141092F3141092F4141092F514B4
S11332701092461510924715109248151092491550
S11332808091171487FF18C08091D81482FF14C04E
S113329010924A1510924B1510924C1510924D1520
S11332A080E090E0A0E8BFE38093FC149093FD14C9
S11332B0A093FE14B093FF14089590911E14953AB0
S11332C009F0A9C0811119C08BE291E0D3DE6093AB
S11332D0CB147093CC148093CD149093CE1487E2C6
S11332E091E0C8DE6093C7147093C8148093C91426
S11332F09093CA1483E291E01AC0813011F58FE1F2
S113330091E0B8DE6093CB147093CC148093CD1409
S11333109093CE148BE191E0ADDE6093C71470936B
S1133320C8148093C9149093CA1487E191E0A2DE73
S11333306093C3147093C4148093C5149093C614FB
S113334086C08230C9F483E191E094DE6093CB14AB
S11333507093CC148093CD149093CE148FE091E0AD
S113336089DE6093C7147093C8148093C914909332
S1133370CA148BE091E0DBCF8330C9F487E091E09D
S113338079DE6093CB147093CC148093CD14909316
S1133390CE1483E091E06EDE6093C7147093C8147A
S11333A08093C9149093CA148FEF90E0C0CF8430F7
S11333B0C9F48BEF90E05EDE6093CB147093CC1471
S11333C08093CD149093CE1487EF90E053DE6093F6
S11333D0C7147093C8148093C9149093CA1483EFCC
S11333E090E0A5CF8FEE90E045DE6093CB14709310
S11333F0CC148093CD149093CE148BEE90E03ADEEF
S11334006093C7147093C8148093C9149093CA141A
S113341087EE90E08CCF1092CB141092CC141092C3
S1133420CD141092CE1480E090E0A0E8BFE3809326
S1133430C7149093C814A093C914B093CA141092DB
S1133440C3141092C4141092C5141092C61480911F
S1133450171487FF18C08091D81483FF14C01092EA
S1133460CB141092CC141092CD141092CE1480E090
S113347090E0A0E8BFE38093C7149093C814A0938E
S1133480C914B093CA1408958091121481FF55C0D1
S11334908091D81482FF23C08091CF14811103C07E
S11334A087E791E049C08091CF14813019F487E611
S11334B091E042C08091CF14823019F487E591E005
S11334C03BC08091CF14833019F487E491E034C079
S11334D08091CF14843089F587E391E02DC08091E9
S11334E0D81483FF2AC080914315811103C087E259
S11334F091E022C080914315813019F48BE191E071
S11335001BC080914315823019F48FE091E014C000
S113351080914315833019F483E091E00DC08091CC
S11335204315843019F487EF90E006C08091431569
S1133530853019F48BEE90E09DCD60E070E080E87A
S11335409FEB08958091121481FF55C08091D81487
S113355082FF23C08091CF14811103C08BE791E0D7
S113356049C08091CF14813019F48BE691E042C0B8
S11335708091CF14823019F48BE591E03BC08091A7
S1133580CF14833019F48BE491E034C08091CF14CC
S1133590843089F58BE391E02DC08091D81483FFAA
S11335A02AC080914315811103C08BE291E022C0AF
S11335B080914315813019F48FE191E01BC0809113
S11335C04315823019F483E191E014C080914315CE
S11335D0833019F487E091E00DC080914315843065
S11335E019F48BEF90E006C080914315853019F4EF
S11335F08FEE90E03FCD60E070E080E89FEB0895AF
S1133600CF93DF9300D0CDB7DEB742E050E0BC01EA
S1133610CE0101960E94B84589819A810F900F903E
S1133620DF91CF91089580911E14853A19F486E5AF
S113363090E0E6CF81EE94E00895CF93DF9300D03D
S113364000D0CDB7DEB744E050E0BC01CE01019616
S11336500E94B84569817A818B819C810F900F907B
S11336600F900F90DF91CF910895CF92DF92EF9258
S1133670FF920F931F93CF93DF93CDB7DEB76C0107
S1133680EDB6FEB650E08DB79EB7841B950B0FB612
S1133690F8949EBF0FBE8DBF0DB71EB70F5F1F4FAF
S11336A0C8010E94B845B801C6010E94A40B0FB618
S11336B0F894FEBE0FBEEDBEDF91CF911F910F9126
S11336C0FF90EF90DF90CF9008954F925F926F92AA
S11336D07F928F929F92AF92BF92CF92DF92EF929E
S11336E0FF920F931F9380E190E00E94C84580935E
S11336F01E1480911E14853A09F0B9C245E16EEC9E
S113370070E088E294E1B1DF83E590E00E94C8456F
S11337108093191481E590E00E94C84580931114A8
S113372083EE90E08ADF609385147093861480930F
S113373087149093881485E590E00E94C84580938F
S11337401C1484E590E00E94C84580931A148DE00F
S113375090E00E94C8458093A7068FE490E050DF74
S113376090937D1080937C108EE490E00E94C84575
S1133770809300148DE490E00E94C8458093381231
S113378087E891E00E94C8458093D81486E891E0C8
S11337900E94C8458093FA1485E891E00E94C845C8
S11337A08093FB1484E891E00E94C84580932E1511
S11337B083E891E00E94C8458093F1148FE791E07B
S11337C01FDF909345158093441581E891E018DF3D
S11337D09093D7148093D6148CE090E00E94C8454F
S11337E08093B60288E090E045DC6093A002709379
S11337F0A1028093A2029093A30284E090E03ADCB9
S11338006093990A70939A0A80939B0A90939C0AF6
S113381081E090E00E94C8458093B10280E090E08E
S11338200E94C8458093A40282E090E0E9DE909370
S1133830AB028093AA028FE090E00E94C845809377
S11338408A0E8EE090E00E94C84580938B0E89E436
S113385090E010DC6093EB137093EC138093ED1302
S11338609093EE1385E490E005DC6093331270933B
S11338703412809335129093361281E490E0FADB8F
S11338806093521270935312809354129093551272
S11338908DE390E0EFDB60932F12709330128093EE
S11338A031129093321289E390E0E4DB6093EF13DA
S11338B07093F0138093F1139093F21385E390E0E7
S11338C0D9DB6093091470930A1480930B149093BA
S11338D00C1481E390E0CEDB6093FC137093FD1332
S11338E08093FE139093FF138DE290E0C3DB60930B
S11338F07E1070937F10809380109093811089E2E2
S113390090E0B8DB6093F4137093F5138093F6138F
S11339109093F71385E290E0ADDB60930D14709300
S11339200E1480930F149093101481E290E0A2DBA4
S113393060938F10709390108093911090939210D5
S11339408DE190E097DB60934E1270934F12809359
S113395050129093511289E190E08CDB60934212F3
S113396070934312809344129093451285E190E042
S113397081DB6093F8137093F9138093FA13909397
S1133980FB1381E190E076DB6093831070938410E5
S113399080938510909386108AEC90E06BDB6093A3
S11339A08D1470938E1480938F149093901486ECDE
S11339B090E060DB60934B1470934C1480934D142F
S11339C090934E1482EC90E055DB60935414709302
S11339D0551480935614909357148EEB90E04ADB61
S11339E060936014709361148093621490936314D1
S11339F08AEB90E03FDB60937D1470937E14809398
S1133A007F149093801486EB90E034DB609324144D
S1133A1070932514809326149093271482EB90E0DE
S1133A2029DB6093BB147093BC148093BD149093F2
S1133A30BE148EEA90E01EDB6093891470938A149E
S1133A4080938B1490938C148AEA90E013DB609338
S1133A50AC027093AD028093AE029093AF0286EAFB
S1133A6090E008DB60939C0270939D0280939E0219
S1133A7090939F0282EA90E0FDDA60937814709349
S1133A80791480937A1490937B148EE990E0F2DA9F
S1133A906093AC147093AD148093AE149093AF14F0
S1133AA08AE990E0E7DA609368147093691480936C
S1133AB06A1490936B1486E990E0DCDA60939614B0
S1133AC070939714809398149093991482E990E0DA
S1133AD0D1DA6093A4147093A5148093A6149093E0
S1133AE0A7146091A4147091A5148091A6149091C8
S1133AF0A7142091A4143091A5144091A6145091B8
S1133B00A7140E94F8406093A4147093A5148093A2
S1133B10A6149093A71480E990E072DD9093B114F9
S1133B208093B0148CE890E0A5DA609370147093DD
S1133B307114809372149093731488E890E09ADA65
S1133B40609320147093211480932214909323146F
S1133B5084E890E08FDA60934F147093501480934C
S1133B6051149093521480E890E084DA6093A01486
S1133B707093A1148093A2149093A3148CE790E003
S1133B8079DA609358147093591480935A1490936B
S1133B905B1482E590E00E94C845809317148BE77C
S1133BA090E00E94C8458093931487E790E062DA1E
S1133BB0609341147093421480934314909344147B
S1133BC083E790E057DA60939C1470939D1480937C
S1133BD09E1490939F1482E790E00E94C8458093BE
S1133BE0B6148EE690E046DA60933D1470933E146A
S1133BF080933F14909340148AE690E03BDA6093FC
S1133C006C1470936D1480936E1490936F1486E605
S1133C1090E030DA60935C1470935D1480935E14CA
S1133C2090935F1482E690E025DA6093B714709362
S1133C30B8148093B9149093BA148EE590E01ADA0C
S1133C40609374147093751480937614909377141E
S1133C508AE590E00FDA609364147093651480939E
S1133C6066149093671488E590E0CADC42C262E768
S1133C7072E088E294E10E94A40B1092191410924D
S1133C80111480E094E2A4EFB0E080938514909343
S1133C908614A0938714B093881495E090931C1411
S1133CA084E680931A148AE08093A706E1E0F0E0AA
S1133CB0F0937D10E0937C1081E080930014809356
S1133CC038121092D81424E02093FA149093FB1421
S1133CD09FEF90932E159093F11428EC30E03093DD
S1133CE04515209344153093D7142093D61410927D
S1133CF0B60246EA5FE069EC7FE34093A00250938A
S1133D00A1026093A2027093A3024EEA57E461E811
S1133D107FE34093990A50939A0A60939B0A7093A5
S1133D209C0A8093B1028093A40285E090E0909372
S1133D30AB028093AA0210928A0E10928B0E1092FC
S1133D40EB131092EC131092ED131092EE1380E02B
S1133D5090E0A0E8BFE38093331290933412A093D1
S1133D603512B093361210925212109253121092CE
S1133D7054121092551280932F1290933012A093E4
S1133D803112B09332121092EF131092F01310927A
S1133D90F1131092F2132FEAC22E23E2D22E2EEE4A
S1133DA0E22E2EE3F22EC0920914D0920A14E0926D
S1133DB00B14F0920C1400E010E523E437E40093B4
S1133DC0FC131093FD132093FE133093FF1347E16C
S1133DD057EB61ED78E340937E1050937F1060932E
S1133DE08010709381100F2EF9E98F2EF1EA9F2E27
S1133DF0F8E9AF2EF9E3BF2EF02D8092F4139092E0
S1133E00F513A092F613B092F713C0920D14D0924A
S1133E100E14E0920F14F092101400938F1010936C
S1133E209010209391103093921040934E1250931F
S1133E304F1260935012709351124DE557E763E8A7
S1133E4079E3409342125093431260934412709367
S1133E50451240E050E062E274E44093F81350935A
S1133E60F9136093FA137093FB1380938310909368
S1133E708410A0938510B093861010928D14109224
S1133E808E1410928F141092901440E050E060E26F
S1133E9072E440934B1450934C1460934D147093FC
S1133EA04E1440E050E060EA70E4409354145093A0
S1133EB05514609356147093571400E010E02CE0EE
S1133EC032E40093601410936114209362143093CD
S1133ED0631410927D1410927E1410927F14109229
S1133EE0801400E010E020EA32E4009324141093DC
S1133EF0251420932614309327144093BB14509315
S1133F00BC146093BD147093BE1400E010E020E76D
S1133F1032E40093891410938A1420938B14309301
S1133F208C1400E010E62AE636E40093AC02109309
S1133F30AD022093AE023093AF0200E018EC2FE202
S1133F4037E400939C0210939D0220939E023093C9
S1133F509F02412C512C2AE7622E24E4722E4092B7
S1133F6078145092791460927A1470927B1400E061
S1133F7010E020E231E40093AC141093AD142093CC
S1133F80AE143093AF140F2EFAE98F2EF9E99F2E59
S1133F90A92CFFE3BF2EF02D80926814909269142F
S1133FA0A0926A14B0926B140F2EFAE9CF2EF9E99D
S1133FB0DF2EF9E1EF2EFFE3FF2EF02DC0929614D1
S1133FC0D0929714E0929814F09299140F2EC12C69
S1133FD0F4E2DF2EF4E7EF2EF9E4FF2EF02DC09289
S1133FE0A414D092A514E092A614F092A714F0930E
S1133FF0B114E093B0144092701450927114609212
S11340007214709273148093201490932114A093CB
S11340102214B093231480924F1490925014A092BF
S11340205114B09252148AE999E9A9E1BFE380934B
S1134030A0149093A114A093A214B093A31400937A
S113404058141093591420935A1430935B141092FB
S11340501714109293141092411410924214109257
S113406043141092441410929C1410929D141092B4
S11340709E1410929F141092B614C12CD12C80EF70
S1134080E82E81E4F82EC0923D14D0923E14E092C2
S11340903F14F092401480E090E0A8ECB1E48093E7
S11340A06C1490936D14A0936E14B0936F14C0921B
S11340B05C14D0925D14E0925E14F0925F148093CD
S11340C0B7149093B814A093B914B093BA1400938E
S11340D074141093751420937614309377144093CA
S11340E0641450936514609366147093671480E6A7
S11340F099E09093921480939114209100148091EC
S11341007C1090917D10289FB001299F700D11247F
S113411080E090E00E94FD3F9B01AC0160E070E014
S113412080E89FE30E94643F60939310709394101F
S113413080939510909396106091381270E080E00F
S113414090E00E94FD3F9B01AC0160E070E080E8DC
S11341509FE30E94643F60934A1270934B128093D2
S11341604C1290934D126091851470918614809135
S11341708714909188140E94FF3F20E034E244E7C2
S113418059E40E94643F9B01AC0160E070E080E868
S11341909FE30E94643F20E030E04DE353E40E943B
S11341A0F8406093B7027093B8028093B902909379
S11341B0BA0260918514709186148091871490914D
S11341C088140E94FF3F20E034E244E759E40E944F
S11341D0643F9B01AC0160E070E080E89FE30E94D3
S11341E0643F20E030E040E051E40E94F8406093F6
S11341F0A6027093A7028093A8029093A9021F912C
S11342000F91FF90EF90DF90CF90BF90AF909F9071
S11342108F907F906F905F904F9008958F929F92B0
S1134220AF92BF92DF92EF92FF920F931F93CF93BF
S1134230DF93CDB7DEB7C557D1090FB6F894DEBF0B
S11342400FBECDBF8C01F62E81E068133DC0F8018E
S1134250CE0101964C01DC01D12C5C0181918930A5
S113426069F0811105C08AE792E00E94B80A29C664
S11342708D93D39496E0D912F1CFF5CFF401ED0DDF
S1134280F11D1082C4010E94A142E82ED39490E053
S1134290F801ED0DF11D2081222361F0F401219339
S11342A04F01D3949F5F913699F78AE892E00E9478
S11342B0B80A07C6F501E90FF11D10824AE0B801FA
S11342C090E00E94C34304C0C8010E94A142E82EAA
S11342D06AE972E0C8010E94B50BE1100AC09801B6
S11342E0AE014F5F5F4F6F2D80E190E00E94C217D7
S11342F0E8C5F1E0EF1221C0FF1211C0BE016F5FEB
S11343007F4FCE018F599F4F0E94A40B44E150E090
S11343106EEC70E0CE018F599F4F0E94D04544E16E
S11343206EEC70E0CE018F599F4F9FD9BE016F593B
S11343307F4FC8010E94B50BC4C582E0E8120AC0D1
S11343409801AE014F5F5F4F6F2D83E590E00E94AF
S1134350C217B7C593E0E9120AC09801AE014F5FD6
S11343605F4F6F2D81E590E00E94C217AAC5E5E07A
S1134370EE1226C0F1E0FF1213C0CE0101960E9496
S1134380BE42A5966CAF7DAF8EAF9FAFA59744E0BC
S113439050E063EE70E0CE018F599F4F0E94D045EC
S11343A083EE90E04AD92AE0AE014F5F5F4F0E944E
S11343B0CD43BE016F5F7F4FC8010E94B50B81C51D
S11343C086E0E8120AC09801AE014F5F5F4F6F2D7F
S11343D086E590E00E94F01774C597E0E9120AC0E0
S11343E09801AE014F5F5F4F6F2D85E590E00E940D
S11343F0C21767C5E8E0EE120AC09801AE014F5F2C
S11344005F4F6F2D84E590E00E94C2175AC5FAE011
S1134410EF120AC09801AE014F5F5F4F6F2D8FE41A
S113442090E00E94F0174DC58BE0E8120AC0980195
S1134430AE014F5F5F4F6F2D8DE490E00E94C21775
S113444040C59CE0E9120AC09801AE014F5F5F4F7E
S11344506F2D8EE490E00E94C21733C5E4E1EE12A2
S11344600AC09801AE014F5F5F4F6F2D87E891E05E
S11344700E94C21726C5F5E1EF120AC09801AE01E9
S11344804F5F5F4F6F2D86E891E00E94C21719C5F8
S113449086E1E8120AC09801AE014F5F5F4F6F2DAD
S11344A085E891E00E94C2170CC597E1E9120AC0A1
S11344B09801AE014F5F5F4F6F2D8FE791E00E942F
S11344C0F017FFC4E8E1EE120AC09801AE014F5F95
S11344D05F4F6F2D81E891E00E94F017F2C4F9E17B
S11344E0EF120AC09801AE014F5F5F4F6F2D8BE74B
S11344F091E00E948517E5C48AE1E8120AC0980198
S1134500AE014F5F5F4F6F2D87E791E00E948517E3
S1134510D8C49BE1E9120AC09801AE014F5F5F4F16
S11345206F2D83E791E00E948517CBC4ECE1EE1276
S11345300AC09801AE014F5F5F4F6F2D8FE691E087
S11345400E948517BEC4FEE1EF120AC09801AE01B5
S11345504F5F5F4F6F2D8BE691E00E948517B1C4CA
S11345608FE1E8120AC09801AE014F5F5F4F6F2DD3
S113457087E691E00E948517A4C490E2E9120AC07C
S11345809801AE014F5F5F4F6F2D83E691E00E946B
S1134590851797C4E1E2EE120AC09801AE014F5F9D
S11345A05F4F6F2D8FE591E00E9485178AC4F3E277
S11345B0EF120AC09801AE014F5F5F4F6F2D8BE57C
S11345C091E00E9485177DC484E2E8120AC0980134
S11345D0AE014F5F5F4F6F2D87E591E00E94851715
S11345E070C495E2E9120AC09801AE014F5F5F4FB3
S11345F06F2D83E591E00E94851763C4E6E2EE1215
S11346000AC09801AE014F5F5F4F6F2D8FE491E0B8
S11346100E94851756C4F8E2EF120AC09801AE0151
S11346204F5F5F4F6F2D8BE491E00E94851749C463
S113463089E2E8120AC09801AE014F5F5F4F6F2D07
S113464087E491E00E9485173CC49AE2E9120AC00B
S11346509801AE014F5F5F4F6F2D83E491E00E949C
S113466085172FC4EBE2EE120AC09801AE014F5F2A
S11346705F4F6F2D8FE391E00E94851722C4FDE206
S1134680EF120AC09801AE014F5F5F4F6F2D8BE3AD
S113469091E00E94851715C48EE2E8120AC09801C1
S11346A0AE014F5F5F4F6F2D87E391E00E94851746
S11346B008C49FE2E9120AC09801AE014F5F5F4F40
S11346C06F2D83E391E00E948517FBC3E0E3EE12B4
S11346D00AC09801AE014F5F5F4F6F2D8FE291E0EA
S11346E00E948517EEC3F7E3EF120AC09801AE01EA
S11346F04F5F5F4F6F2D8BE291E00E948517E1C3FE
S113470088E3E8120AC09801AE014F5F5F4F6F2D36
S113471087E291E00E948517D4C399E3E9120AC0A5
S11347209801AE014F5F5F4F6F2D83E291E00E94CD
S11347308517C7C3ECE3EE120AC09801AE014F5FC0
S11347405F4F6F2D8FE191E00E948517BAC3FDE39F
S1134750EF120AC09801AE014F5F5F4F6F2D8BE1DE
S113476091E00E948517ADC38EE3E8120AC0980158
S1134770AE014F5F5F4F6F2D87E191E00E94851777
S1134780A0C391E4E9120AC09801AE014F5F5F4FE4
S11347906F2D83E191E00E94851793C3E2E4EE124A
S11347A00AC09801AE014F5F5F4F6F2D8FE091E01B
S11347B00E94851786C3F3E4EF120AC09801AE0184
S11347C04F5F5F4F6F2D8BE091E00E94851779C397
S11347D086E4E8120AC09801AE014F5F5F4F6F2D67
S11347E087E091E00E9485176CC397E4E9120AC040
S11347F09801AE014F5F5F4F6F2D83E091E00E94FF
S113480085175FC3E8E4EE120AC09801AE014F5F5A
S11348105F4F6F2D8FEF90E00E94851752C3FBE42A
S1134820EF120AC09801AE014F5F5F4F6F2D8BEFFF
S113483090E00E94851745C38CE4E8120AC09801F1
S1134840AE014F5F5F4F6F2D87EF90E00E94851799
S113485038C39DE4E9120AC09801AE014F5F5F4F6F
S11348606F2D83EF90E00E9485172BC3E0E5EE12D5
S11348700AC09801AE014F5F5F4F6F2D8FEE90E03D
S11348800E9485171EC3F1E5EF120AC09801AE011C
S11348904F5F5F4F6F2D8BEE90E00E94851711C321
S11348A082E5E8120AC09801AE014F5F5F4F6F2D99
S11348B087EE90E00E94851704C393E5E9120AC0CD
S11348C09801AE014F5F5F4F6F2D84E891E00E9425
S11348D0C217F7C2E4E5EE120AC09801AE014F5FB9
S11348E05F4F6F2D83E891E00E94C217EAC2FAE598
S11348F0EF120AC09801AE014F5F5F4F6F2D89E43C
S113490090E00E948517DDC28BE5E8120AC0980189
S1134910AE014F5F5F4F6F2D85E490E00E948517D5
S1134920D0C29FE5E9120AC09801AE014F5F5F4F04
S11349306F2D81E490E00E948517C3C2E0E6EE1279
S11349400AC09801AE014F5F5F4F6F2D8DE390E079
S11349500E948517B6C2F1E6EF120AC09801AE01B3
S11349604F5F5F4F6F2D89E390E00E948517A9C2C6
S113497084E6E8120AC09801AE014F5F5F4F6F2DC5
S113498085E390E00E9485179CC295E6E9120AC06F
S11349909801AE014F5F5F4F6F2D81E390E00E945D
S11349A085178FC2E6E6EE120AC09801AE014F5F8A
S11349B05F4F6F2D8DE290E00E94851782C2F7E66B
S11349C0EF120AC09801AE014F5F5F4F6F2D89E26D
S11349D090E00E94851775C289E6E8120AC0980122
S11349E0AE014F5F5F4F6F2D85E290E00E94851707
S11349F068C29AE6E9120AC09801AE014F5F5F4FA0
S1134A006F2D81E290E00E9485175BC2EBE6EE1207
S1134A100AC09801AE014F5F5F4F6F2D8DE190E0AA
S1134A200E9485174EC2FCE6EF120AC09801AE013F
S1134A304F5F5F4F6F2D89E190E00E94851741C25F
S1134A408EE6E8120AC09801AE014F5F5F4F6F2DEA
S1134A5085E190E00E94851734C29FE6E9120AC0FE
S1134A609801AE014F5F5F4F6F2D81E190E00E948E
S1134A70851727C2E3E7EE120AC09801AE014F5F23
S1134A805F4F6F2D8FE090E00E94C2171AC2F4E7C7
S1134A90EF120AC09801AE014F5F5F4F6F2D8EE099
S1134AA090E00E94C2170DC28DE7E8120AC0980177
S1134AB0AE014F5F5F4F6F2D8AEC90E00E94851727
S1134AC000C29EE7E9120AC09801AE014F5F5F4F32
S1134AD06F2D86EC90E00E948517F3C1EFE7EE128C
S1134AE00AC09801AE014F5F5F4F6F2D82EC90E0DA
S1134AF00E948517E6C1F0E8EF120AC09801AE01E2
S1134B004F5F5F4F6F2D8EEB90E00E948517D9C1E8
S1134B1082E8E8120AC09801AE014F5F5F4F6F2D23
S1134B208AEB90E00E948517CCC193E8E9120AC091
S1134B309801AE014F5F5F4F6F2D86EB90E00E94AE
S1134B408517BFC1E4E8EE120AC09801AE014F5FB9
S1134B505F4F6F2D82EB90E00E948517B2C1F5E89C
S1134B60EF120AC09801AE014F5F5F4F6F2D8EEABE
S1134B7090E00E948517A5C187E8E8120AC0980151
S1134B80AE014F5F5F4F6F2D8AEA90E00E94851758
S1134B9098C198E8E9120AC09801AE014F5F5F4FCF
S1134BA06F2D86EA90E00E9485178BC1ECE8EE1227
S1134BB00AC09801AE014F5F5F4F6F2D8DE090E00A
S1134BC00E94C2177EC1FDE8EF120AC09801AE012F
S1134BD04F5F5F4F6F2D8CE090E00E94C21771C150
S1134BE08EE8E8120AC09801AE014F5F5F4F6F2D47
S1134BF088E090E00E94851764C19FE8E9120AC02A
S1134C009801AE014F5F5F4F6F2D84E090E00E94EA
S1134C10851757C1E0E9EE120AC09801AE014F5F53
S1134C205F4F6F2D82E090E00E94F0174AC1F1E9D6
S1134C30EF120AC09801AE014F5F5F4F6F2D81E004
S1134C4090E00E94C2173DC182E9E8120AC09801AF
S1134C50AE014F5F5F4F6F2D80E090E00E94C2175E
S1134C6030C196E9E9120AC09801AE014F5F5F4F67
S1134C706F2D82EA90E00E94851723C1E7E9EE12C6
S1134C800AC09801AE014F5F5F4F6F2D8EE990E02F
S1134C900E94851716C1F8E9EF120AC09801AE0107
S1134CA04F5F5F4F6F2D8AE990E00E94851709C11D
S1134CB089E9E8120AC09801AE014F5F5F4F6F2D7A
S1134CC086E990E00E948517FCC09AE9E9120AC0BF
S1134CD09801AE014F5F5F4F6F2D82E990E00E9413
S1134CE08517EFC0EBE9EE120AC09801AE014F5FE1
S1134CF05F4F6F2D80E990E00E94F017E2C0F0EA68
S1134D00EF120AC09801AE014F5F5F4F6F2D8CE820
S1134D1090E00E948517D5C081EAE8120AC0980184
S1134D20AE014F5F5F4F6F2D88E890E00E948517BA
S1134D30C8C092EAE9120AC09801AE014F5F5F4F02
S1134D406F2D84E890E00E948517BBC0E3EAEE1261
S1134D500AC09801AE014F5F5F4F6F2D80E890E06D
S1134D600E948517AEC0F4EAEF120AC09801AE01A2
S1134D704F5F5F4F6F2D8CE790E00E948517A1C0B5
S1134D8085EAE8120AC09801AE014F5F5F4F6F2DAC
S1134D9082E590E00E94C21794C096EAE9120AC024
S1134DA09801AE014F5F5F4F6F2D8BE790E00E943B
S1134DB0C21787C0E7EAEE120AC09801AE014F5F3E
S1134DC05F4F6F2D87E790E00E9485177AC0F8EA5D
S1134DD0EF120AC09801AE014F5F5F4F6F2D83E75A
S1134DE090E00E9485176DC08FEAE8120AC098010E
S1134DF0AE014F5F5F4F6F2D82E790E00E94C217B4
S1134E0060C090EBE9120AC09801AE014F5F5F4F9A
S1134E106F2D8EE690E00E94851753C0E1EBEE12F1
S1134E200AC09801AE014F5F5F4F6F2D8AE690E094
S1134E300E94851746C0F2EBEF120AC09801AE013A
S1134E404F5F5F4F6F2D86E690E00E94851739C053
S1134E5083EBE8120AC09801AE014F5F5F4F6F2DDC
S1134E6082E690E00E9485172CC094EBE9120AC0F8
S1134E709801AE014F5F5F4F6F2D8EE590E00E9469
S1134E8085171FC0E5EBEE120AC09801AE014F5F13
S1134E905F4F6F2D8AE590E00E94851712C0F6EBF4
S1134EA0EF120AC09801AE014F5F5F4F6F2D88E586
S1134EB090E00E94F01705C069E171E0C8010E940A
S1134EC0B50BCB58DF4F0FB6F894DEBF0FBECDBF86
S1134ED0DF91CF911F910F91FF90EF90DF90BF90E2
S1134EE0AF909F908F90089585E08A95F1F7000028
S1134EF02A9A80E18A95F1F72A981EBC0DB407FE20
S1134F00FDCF9EB51EBC0DB407FEFDCF8EB5089532
S1134F10CF92DF92EF92FF929C01C12CD12C7601AB
S1134F2060E070E0CB0121153105E1F02150310939
S1134F3045E04A95F1F700002A9A40E14A95F1F7D5
S1134F402A981EBC0DB407FEFDCF4EB5D42E1EBC50
S1134F500DB407FEFDCF4EB5C42E6C0D7D1D8E1D08
S1134F609F1DE1CFFF90EF90DF90CF900895CF92F7
S1134F70DF92EF92FF929C01C12CD12C760110920A
S1134F8082101092F31360E070E0CB01F1E0211580
S1134F90310551F12150310945E04A95F1F70000FE
S1134FA02A9A40E14A95F1F72A981EBC0DB407FEEF
S1134FB0FDCFEEB5DE2E1EBC0DB407FEFDCFEEB563
S1134FC0CE2EAD2DD11005C0E11109C0F093F3131D
S1134FD006C0AF3F21F4EF3F11F4F09382106C0D43
S1134FE07D1D8E1D9F1DD3CFFF90EF90DF90CF903E
S1134FF008954F925F926F927F928F929F92AF9299
S1135000BF92CF92DF92EF92FF9213981298119869
S11350108FE891E00197F1F700C0000080917C10C7
S113502090917D10A4DF139A1298119830913D123B
S113503020910014321710F010923D12E0913D12AD
S113504024E0E29FF0011124E556FF4E6083718352
S1135050828393832091001460E070E0CB012223CB
S113506081F0215034E0239FF0011124E556FF4ED6
S1135070C080D180E280F3806C0D7D1D8E1D9F1D4C
S1135080EECF4090931050909410609095107090D3
S1135090961080904A1590904B15A0904C15B090A6
S11350A04D15C090FC14D090FD14E090FE14F090C7
S11350B0FF140E94FD3FA30192010E94F840A50144
S11350C094010E94FC3EA70196010E94F84060935F
S11350D08710709388108093891090938A10809120
S11350E0F313882349F0809112148460809312147E
S11350F08091D81480621AC080918210882371F044
S1135100809112148460809312148091D814806169
S11351108093D8148091D8148F7D0DC0809112147F
S11351208B7F809312148091D8148F7D8093D81430
S11351308091D8148F7E8093D81487EF90E00197E4
S1135140F1F700C0000080917C1090917D100FDF7A
S11351501398129A1198E0913D1224E0E29FF00115
S11351601124EA5AFD4E6083718382839383809174
S11351703D128F5F80933D122091001460E070E037
S1135180CB01222381F0215034E0239FF00111242C
S1135190EA5AFD4EC080D180E280F3806C0D7D1D03
S11351A08E1D9F1DEECF40909310509094106090F0
S11351B09510709096108090CB149090CC14A09081
S11351C0CD14B090CE14C090C714D090C814E09001
S11351D0C914F090CA140E94FD3FA30192010E94D9
S11351E0F840A50194010E94FC3EA70196010E948B
S11351F0F84060933E1270933F1280934012909354
S1135200411260918710709188108091891090915B
S11352108A102091F2143091F3144091F4145091B7
S1135220F514C0903E12D0903F12E0904012F090DE
S113523041120E94F840A70196010E94FC3E60932F
S1135240391270933A1280933B1290933C128091DE
S1135250F313882349F08091121488608093121408
S11352608091D81480681AC080918210882371F0CC
S1135270809112148860809312148091D8148064F1
S11352808093D8148091D8148F770DC08091121414
S1135290877F809312148091D8148F778093D814C9
S11352A08091D8148F7B8093D81485ED8A95F1F77B
S11352B000008091381290E02BDE139A129A119814
S11352C0C0904A12D0904B12E0904C12F0904D12C4
S11352D00E94FD3FA70196010E94F84060938B1045
S11352E070938C1080938D1090938E108FE591E0C5
S11352F00197F1F700C000008091381290E008DEB9
S1135300139A1298119A40904A1250904B1260903E
S11353104C1270904D128090331290903412A090E1
S11353203512B0903612C090EB13D090EC13E0908D
S1135330ED13F090EE130E94FD3FA30192010E9431
S1135340F840A50194010E94F840A70196010E942B
S1135350FC3E6093011470930214809303149093A1
S1135360041483E291E00197F1F700C000008091FA
S1135370381290E0CDDD13981298119AC0904A1219
S1135380D0904B12E0904C12F0904D120E94FD3FD1
S1135390A70196010E94F8402091091430910A1443
S11353A040910B1450910C140E94F8406B017C0145
S11353B09B01AC0160E070E080E897E40E94FB3E52
S11353C09B01AC01C701B6010E94643F2091FC130C
S11353D03091FD134091FE135091FF13C0907E1045
S11353E0D0907F10E0908010F09081100E94F840DF
S11353F0A70196010E94F8400E94B8402091F4133E
S11354003091F5134091F6135091F7130E94F84030
S11354102EE13FEC4BE55BE30E94FC3E9B01AC01BB
S113542060E070E080E89FE30E94643F23E333E997
S113543048E853E40E94FB3E6093971070939810E1
S11354408093991090939A108091381290E060DDC7
S1135450139A129A119AC0904A12D0904B12E0906B
S11354604C12F0904D120E94FD3FA70196010E943C
S1135470F84020910D1430910E1440910F14509166
S113548010140E94F8406B017C019B01AC0160E0A8
S113549070E080E897E40E94FB3E9B01AC01C701E9
S11354A0B6010E94643F20918F103091901040917A
S11354B0911050919210C0904E12D0904F12E090E3
S11354C05012F09051120E94F840A70196010E94D8
S11354D0F8400E94B840209142123091431240910A
S11354E04412509145120E94F8402EE13FEC4BE5E6
S11354F05BE30E94FC3E9B01AC0160E070E080E84D
S11355009FE30E94643F23E333E948E853E40E94A5
S1135510FB3E6093051470930614809307149093D4
S11355200814FF90EF90DF90CF90BF90AF909F90C2
S11355308F907F906F905F904F9008954F925F92FD
S11355406F927F928F929F92AF92BF92CF92DF928F
S1135550EF92FF921398129811988FE891E00197B7
S1135560F1F700C000002091001480917C1090910C
S11355707D10AC01249FC001259F900D1124F7DC00
S113558040909310509094106090951070909610E5
S113559080904A1590904B15A0904C15B0904D15E5
S11355A0C090FC14D090FD14E090FE14F090FF1411
S11355B00E94FD3FA30192010E94F840A5019401BD
S11355C00E94FC3EA70196010E94F8406093871058
S11355D0709388108093891090938A108091F313AC
S11355E0882321F08091D814806210C080918210A9
S11355F0882349F08091D81480618093D8148091D5
S1135600D8148F7D08C08091D8148F7D8093D814CE
S11356108091D8148F7E8093D814139A129A119A79
S1135620FF90EF90DF90CF90BF90AF909F908F90BE
S11356307F906F905F904F9008954F925F926F921A
S11356407F928F929F92AF92BF92CF92DF92EF920E
S1135650FF92139A129811988FE891E00197F1F74D
S113566000C000002091001480917C1090917D1066
S1135670AC01249FC001259F900D112478DC40903B
S113568093105090941060909510709096108090A4
S1135690CB149090CC14A090CD14B090CE14C090A4
S11356A0C714D090C814E090C914F090CA140E9492
S11356B0FD3FA30192010E94F840A50194010E94BC
S11356C0FC3EA70196010E94F84060933E1270933D
S11356D03F1280934012909341128091F3138823D8
S11356E021F08091D814806810C0809182108823A2
S11356F049F08091D81480648093D8148091D81490
S11357008F7708C08091D8148F778093D8148091B4
S1135710D8148F7B8093D814139A129A119AFF90FD
S1135720EF90DF90CF90BF90AF909F908F907F903D
S11357306F905F904F9008952CB528602CBD8F5FBB
S11357409F472C981EBC0DB407FEFDCF9EBD0DB423
S113575007FEFDCF8EBD0DB407FEFDCF2C9A8CB590
S1135760877F8CBD08954F925F926F927F928F9244
S11357709F92AF92BF92CF92DF92EF92FF924B0132
S11357805C012091FC143091FD144091FE14509161
S1135790FF14409083105090841060908510709096
S11357A08610C090F813D090F913E090FA13F0909B
S11357B0FB130E94643FA30192010E94F840A701D9
S11357C096010E94FC3E6B017C0120E03AEF4FE71A
S11357D057E40E94AF4087FF17C02091F81330911F
S11357E0F9134091FA135091FB13C701B6010E94BB
S11357F0603F87FF10C0C090F813D090F913E09079
S1135800FA13F090FB1307C0C12C8AEFD82E8FE750
S1135810E82E87E4F82E8092811490928214A0924C
S11358208314B0928414C701B6010E94D13FCB0106
S1135830FF90EF90DF90CF90BF90AF909F908F90AC
S11358407F906F905F904F9077CF8CB581608CBDC7
S11358508CB584608CBD149880E88EBD0DB407FEB1
S1135860FDCF81EE8EBD0DB407FEFDCF149A8CB52D
S11358708B7F8CBD8CB58E7F8CBD08958CB581607B
S11358808CBD8CB584608CBD149881E08EBD0DB444
S113589007FEFDCF8FEF8EBD0DB407FEFDCF2EB5F5
S11358A060E070E0CB01722F2FEF2EBD0DB407FE28
S11358B0FDCF2EB5622F9695879577956795149AA7
S11358C02CB52B7F2CBD2CB52E7F2CBD089584EADE
S11358D08093BC008091BC0087FFFCCF8091B9000D
S11358E0887F883009F08EC085E38A95F1F700003F
S11358F080EC8093BB0084E88093BC008091BC0062
S113590087FFFCCF8091B900887F883109F07AC085
S113591085E38A95F1F7000085E08093BB0084E875
S11359208093BC008091BC0087FFFCCF8091B900BC
S1135930887F883209F066C085E38A95F1F7000014
S11359401092BB0084E88093BC008091BC0087FF68
S1135950FCCF8091B900887F883209F053C085E379
S11359608A95F1F7000084E98093BC0085E38A9569
S1135970F1F7000084EA8093BC008091BC0087FFAB
S1135980FCCF8091B900887F8830E1F585E38A9562
S1135990F1F7000080EC8093BB0084E88093BC00A6
S11359A08091BC0087FFFCCF8091B900887F88314B
S11359B049F585E38A95F1F7000086E08093BB0002
S11359C084E88093BC008091BC0087FFFCCF809169
S11359D0B900887F8832B1F485E38A95F1F7000035
S11359E01092BB0084E88093BC008091BC0087FFC8
S11359F0FCCF8091B900887F883221F485E38A95B1
S1135A00F1F7000084E98093BC0085E38A95F1F7FF
S1135A100000089548EE5DEF24EA2093BC00209135
S1135A20BC0027FFFCCF2091B900287F283009F063
S1135A306FC085E38A95F1F7000020EC2093BB004A
S1135A4024E82093BC002091BC0027FFFCCF2091C8
S1135A50B900287F283109F05BC085E38A95F1F706
S1135A6000001092BB0024E82093BC002091BC00ED
S1135A7027FFFCCF2091B900287F283209F048C0C5
S1135A8085E38A95F1F7000024E92093BC008AE6B7
S1135A908A95F1F700C024EA2093BC002091BC0051
S1135AA027FFFCCF2091B900287F283089F585E3B2
S1135AB08A95F1F7000021EC2093BB0024E82093A1
S1135AC0BC002091BC0027FFFCCF2091B900287FA7
S1135AD02034F1F424EC2093BC002091BC0027FF77
S1135AE0FCCF2091B900287F203591F42091BB0090
S1135AF0522F24E82093BC002091BC0027FFFCCF48
S1135B002091B900287F283519F42091BB00422F39
S1135B1024E92093BC00BA0180E090E057FF0EC056
S1135B200E94FD3F20E030E040E85DE30E94F84041
S1135B3020E030E040E855E40C94FB3E0E94FD3F39
S1135B4020E030E040E85DE30C94F84094EA909360
S1135B50BC009091BC0097FFFCCF9091B900987F56
S1135B609830B1F590E49093BB0094E89093BC0016
S1135B709091BC0097FFFCCF9091B900987F983129
S1135B8039F58093BB0084E88093BC008091BC000D
S1135B9087FFFCCF8091B900887F8832C9F4609375
S1135BA0BB0084E88093BC008091BC0087FFFCCFDD
S1135BB08091B900887F883259F44093BB0084E80F
S1135BC08093BC008091BC0087FFFCCF8091B9001A
S1135BD084E98093BC008AE68A95F1F700C00895B1
S1135BE080E48093B800E9EBF0E080818D7F8083CE
S1135BF080818E7F80834091EA136091371282E026
S1135C00A5DF40E060E086E0A1CF2C9A249A2B9A8D
S1135C10239A2A98229A8091191480FF10C08091A7
S1135C201114813021F4149A0C9A559808C080916B
S1135C301114823021F40C980D98559856980E9AA8
S1135C400F9A3E983D983B983C983A9813980B9A33
S1135C5012980A9A1198099A5A98529A0898209A6E
S1135C6028982998099A3F9A4798579A5F980895CF
S1135C7080E480938F0E369905C080918F0E8F5FDC
S1135C8080938F0E359905C080918F0E8E5F80931F
S1135C908F0E339905C080918F0E8C5F80938F0E89
S1135CA0349905C080918F0E885F80938F0E32994E
S1135CB005C080918F0E805F80938F0E0895CF93DF
S1135CC0DF9300D000D0CDB7DEB7F894A89584B7A1
S1135CD0877F84BF0FB6F894A8958091600088618F
S1135CE080936000109260000FBE10921B141092FB
